{
  "_format": "hh-sol-artifact-1",
  "contractName": "TokenV2",
  "sourceName": "contracts/TokenV2.sol",
  "abi": [
    {
      "inputs": [],
      "stateMutability": "nonpayable",
      "type": "constructor"
    },
    {
      "inputs": [],
      "name": "AccessControlBadConfirmation",
      "type": "error"
    },
    {
      "inputs": [
        {
          "internalType": "address",
          "name": "account",
          "type": "address"
        },
        {
          "internalType": "bytes32",
          "name": "neededRole",
          "type": "bytes32"
        }
      ],
      "name": "AccessControlUnauthorizedAccount",
      "type": "error"
    },
    {
      "inputs": [],
      "name": "AccountBlocked",
      "type": "error"
    },
    {
      "inputs": [],
      "name": "AccountFrozen",
      "type": "error"
    },
    {
      "inputs": [],
      "name": "AddressBlocked",
      "type": "error"
    },
    {
      "inputs": [
        {
          "internalType": "address",
          "name": "target",
          "type": "address"
        }
      ],
      "name": "AddressEmptyCode",
      "type": "error"
    },
    {
      "inputs": [],
      "name": "AuthorizationAlreadyUsed",
      "type": "error"
    },
    {
      "inputs": [],
      "name": "AuthorizationExpired",
      "type": "error"
    },
    {
      "inputs": [],
      "name": "AuthorizationNotYetValid",
      "type": "error"
    },
    {
      "inputs": [],
      "name": "ECDSAInvalidSignature",
      "type": "error"
    },
    {
      "inputs": [
        {
          "internalType": "uint256",
          "name": "length",
          "type": "uint256"
        }
      ],
      "name": "ECDSAInvalidSignatureLength",
      "type": "error"
    },
    {
      "inputs": [
        {
          "internalType": "bytes32",
          "name": "s",
          "type": "bytes32"
        }
      ],
      "name": "ECDSAInvalidSignatureS",
      "type": "error"
    },
    {
      "inputs": [],
      "name": "ERC1363ApprovalFailed",
      "type": "error"
    },
    {
      "inputs": [],
      "name": "ERC1363TransferFailed",
      "type": "error"
    },
    {
      "inputs": [
        {
          "internalType": "address",
          "name": "implementation",
          "type": "address"
        }
      ],
      "name": "ERC1967InvalidImplementation",
      "type": "error"
    },
    {
      "inputs": [],
      "name": "ERC1967NonPayable",
      "type": "error"
    },
    {
      "inputs": [
        {
          "internalType": "address",
          "name": "spender",
          "type": "address"
        },
        {
          "internalType": "uint256",
          "name": "allowance",
          "type": "uint256"
        },
        {
          "internalType": "uint256",
          "name": "needed",
          "type": "uint256"
        }
      ],
      "name": "ERC20InsufficientAllowance",
      "type": "error"
    },
    {
      "inputs": [
        {
          "internalType": "address",
          "name": "sender",
          "type": "address"
        },
        {
          "internalType": "uint256",
          "name": "balance",
          "type": "uint256"
        },
        {
          "internalType": "uint256",
          "name": "needed",
          "type": "uint256"
        }
      ],
      "name": "ERC20InsufficientBalance",
      "type": "error"
    },
    {
      "inputs": [
        {
          "internalType": "address",
          "name": "approver",
          "type": "address"
        }
      ],
      "name": "ERC20InvalidApprover",
      "type": "error"
    },
    {
      "inputs": [
        {
          "internalType": "address",
          "name": "receiver",
          "type": "address"
        }
      ],
      "name": "ERC20InvalidReceiver",
      "type": "error"
    },
    {
      "inputs": [
        {
          "internalType": "address",
          "name": "sender",
          "type": "address"
        }
      ],
      "name": "ERC20InvalidSender",
      "type": "error"
    },
    {
      "inputs": [
        {
          "internalType": "address",
          "name": "spender",
          "type": "address"
        }
      ],
      "name": "ERC20InvalidSpender",
      "type": "error"
    },
    {
      "inputs": [
        {
          "internalType": "uint256",
          "name": "deadline",
          "type": "uint256"
        }
      ],
      "name": "ERC2612ExpiredSignature",
      "type": "error"
    },
    {
      "inputs": [
        {
          "internalType": "address",
          "name": "signer",
          "type": "address"
        },
        {
          "internalType": "address",
          "name": "owner",
          "type": "address"
        }
      ],
      "name": "ERC2612InvalidSigner",
      "type": "error"
    },
    {
      "inputs": [],
      "name": "EnforcedPause",
      "type": "error"
    },
    {
      "inputs": [],
      "name": "ExpectedPause",
      "type": "error"
    },
    {
      "inputs": [],
      "name": "FailedCall",
      "type": "error"
    },
    {
      "inputs": [
        {
          "internalType": "uint256",
          "name": "fee",
          "type": "uint256"
        },
        {
          "internalType": "uint256",
          "name": "maxFee",
          "type": "uint256"
        }
      ],
      "name": "FeeExceedsMaximum",
      "type": "error"
    },
    {
      "inputs": [
        {
          "internalType": "uint256",
          "name": "requested",
          "type": "uint256"
        },
        {
          "internalType": "uint256",
          "name": "available",
          "type": "uint256"
        }
      ],
      "name": "InsufficientUnfrozenBalance",
      "type": "error"
    },
    {
      "inputs": [
        {
          "internalType": "address",
          "name": "account",
          "type": "address"
        },
        {
          "internalType": "uint256",
          "name": "currentNonce",
          "type": "uint256"
        }
      ],
      "name": "InvalidAccountNonce",
      "type": "error"
    },
    {
      "inputs": [],
      "name": "InvalidFeeCollector",
      "type": "error"
    },
    {
      "inputs": [],
      "name": "InvalidFreezeAmount",
      "type": "error"
    },
    {
      "inputs": [],
      "name": "InvalidInitialization",
      "type": "error"
    },
    {
      "inputs": [],
      "name": "InvalidNonce",
      "type": "error"
    },
    {
      "inputs": [],
      "name": "InvalidRecipient",
      "type": "error"
    },
    {
      "inputs": [],
      "name": "InvalidSignature",
      "type": "error"
    },
    {
      "inputs": [],
      "name": "NotInitializing",
      "type": "error"
    },
    {
      "inputs": [],
      "name": "TransferFailed",
      "type": "error"
    },
    {
      "inputs": [],
      "name": "UUPSUnauthorizedCallContext",
      "type": "error"
    },
    {
      "inputs": [
        {
          "internalType": "bytes32",
          "name": "slot",
          "type": "bytes32"
        }
      ],
      "name": "UUPSUnsupportedProxiableUUID",
      "type": "error"
    },
    {
      "anonymous": false,
      "inputs": [
        {
          "indexed": true,
          "internalType": "address",
          "name": "owner",
          "type": "address"
        },
        {
          "indexed": true,
          "internalType": "address",
          "name": "spender",
          "type": "address"
        },
        {
          "indexed": false,
          "internalType": "uint256",
          "name": "value",
          "type": "uint256"
        }
      ],
      "name": "Approval",
      "type": "event"
    },
    {
      "anonymous": false,
      "inputs": [
        {
          "indexed": true,
          "internalType": "address",
          "name": "authorizer",
          "type": "address"
        },
        {
          "indexed": true,
          "internalType": "bytes32",
          "name": "nonce",
          "type": "bytes32"
        }
      ],
      "name": "AuthorizationUsed",
      "type": "event"
    },
    {
      "anonymous": false,
      "inputs": [
        {
          "indexed": true,
          "internalType": "address",
          "name": "account",
          "type": "address"
        },
        {
          "indexed": false,
          "internalType": "bool",
          "name": "blocked",
          "type": "bool"
        },
        {
          "indexed": true,
          "internalType": "address",
          "name": "executor",
          "type": "address"
        },
        {
          "indexed": false,
          "internalType": "uint256",
          "name": "timestamp",
          "type": "uint256"
        }
      ],
      "name": "BlockOperationDebug",
      "type": "event"
    },
    {
      "anonymous": false,
      "inputs": [
        {
          "indexed": true,
          "internalType": "address",
          "name": "account",
          "type": "address"
        }
      ],
      "name": "Blocked",
      "type": "event"
    },
    {
      "anonymous": false,
      "inputs": [
        {
          "indexed": true,
          "internalType": "address",
          "name": "from",
          "type": "address"
        },
        {
          "indexed": false,
          "internalType": "uint256",
          "name": "amount",
          "type": "uint256"
        },
        {
          "indexed": true,
          "internalType": "address",
          "name": "executor",
          "type": "address"
        },
        {
          "indexed": false,
          "internalType": "uint256",
          "name": "totalSupplyBefore",
          "type": "uint256"
        },
        {
          "indexed": false,
          "internalType": "uint256",
          "name": "totalSupplyAfter",
          "type": "uint256"
        },
        {
          "indexed": false,
          "internalType": "uint256",
          "name": "balanceBefore",
          "type": "uint256"
        },
        {
          "indexed": false,
          "internalType": "uint256",
          "name": "balanceAfter",
          "type": "uint256"
        },
        {
          "indexed": false,
          "internalType": "uint256",
          "name": "timestamp",
          "type": "uint256"
        }
      ],
      "name": "BurnOperationDebug",
      "type": "event"
    },
    {
      "anonymous": false,
      "inputs": [],
      "name": "EIP712DomainChanged",
      "type": "event"
    },
    {
      "anonymous": false,
      "inputs": [
        {
          "indexed": true,
          "internalType": "bytes32",
          "name": "errorId",
          "type": "bytes32"
        },
        {
          "indexed": false,
          "internalType": "string",
          "name": "errorType",
          "type": "string"
        },
        {
          "indexed": true,
          "internalType": "address",
          "name": "executor",
          "type": "address"
        },
        {
          "indexed": false,
          "internalType": "string",
          "name": "message",
          "type": "string"
        },
        {
          "indexed": false,
          "internalType": "bytes",
          "name": "data",
          "type": "bytes"
        },
        {
          "indexed": false,
          "internalType": "uint256",
          "name": "timestamp",
          "type": "uint256"
        }
      ],
      "name": "ErrorReport",
      "type": "event"
    },
    {
      "anonymous": false,
      "inputs": [
        {
          "indexed": true,
          "internalType": "address",
          "name": "from",
          "type": "address"
        },
        {
          "indexed": true,
          "internalType": "address",
          "name": "to",
          "type": "address"
        },
        {
          "indexed": false,
          "internalType": "uint256",
          "name": "amount",
          "type": "uint256"
        },
        {
          "indexed": false,
          "internalType": "uint256",
          "name": "feeAmount",
          "type": "uint256"
        },
        {
          "indexed": true,
          "internalType": "address",
          "name": "collector",
          "type": "address"
        },
        {
          "indexed": false,
          "internalType": "uint256",
          "name": "netValue",
          "type": "uint256"
        },
        {
          "indexed": false,
          "internalType": "uint256",
          "name": "timestamp",
          "type": "uint256"
        }
      ],
      "name": "FeeOperationDebug",
      "type": "event"
    },
    {
      "anonymous": false,
      "inputs": [
        {
          "indexed": true,
          "internalType": "address",
          "name": "account",
          "type": "address"
        },
        {
          "indexed": false,
          "internalType": "uint256",
          "name": "amount",
          "type": "uint256"
        },
        {
          "indexed": true,
          "internalType": "address",
          "name": "executor",
          "type": "address"
        },
        {
          "indexed": false,
          "internalType": "uint256",
          "name": "frozenBefore",
          "type": "uint256"
        },
        {
          "indexed": false,
          "internalType": "uint256",
          "name": "frozenAfter",
          "type": "uint256"
        },
        {
          "indexed": false,
          "internalType": "uint256",
          "name": "timestamp",
          "type": "uint256"
        }
      ],
      "name": "FreezeOperationDebug",
      "type": "event"
    },
    {
      "anonymous": false,
      "inputs": [
        {
          "indexed": true,
          "internalType": "address",
          "name": "account",
          "type": "address"
        }
      ],
      "name": "Frozen",
      "type": "event"
    },
    {
      "anonymous": false,
      "inputs": [
        {
          "indexed": false,
          "internalType": "uint256",
          "name": "timestamp",
          "type": "uint256"
        },
        {
          "indexed": false,
          "internalType": "uint256",
          "name": "totalSupply",
          "type": "uint256"
        },
        {
          "indexed": false,
          "internalType": "uint256",
          "name": "activeUsers",
          "type": "uint256"
        },
        {
          "indexed": false,
          "internalType": "uint256",
          "name": "totalTransactions",
          "type": "uint256"
        },
        {
          "indexed": true,
          "internalType": "address",
          "name": "checker",
          "type": "address"
        }
      ],
      "name": "HealthCheck",
      "type": "event"
    },
    {
      "anonymous": false,
      "inputs": [
        {
          "indexed": false,
          "internalType": "uint64",
          "name": "version",
          "type": "uint64"
        }
      ],
      "name": "Initialized",
      "type": "event"
    },
    {
      "anonymous": false,
      "inputs": [
        {
          "indexed": true,
          "internalType": "address",
          "name": "to",
          "type": "address"
        },
        {
          "indexed": false,
          "internalType": "uint256",
          "name": "amount",
          "type": "uint256"
        },
        {
          "indexed": true,
          "internalType": "address",
          "name": "executor",
          "type": "address"
        },
        {
          "indexed": false,
          "internalType": "uint256",
          "name": "totalSupplyBefore",
          "type": "uint256"
        },
        {
          "indexed": false,
          "internalType": "uint256",
          "name": "totalSupplyAfter",
          "type": "uint256"
        },
        {
          "indexed": false,
          "internalType": "uint256",
          "name": "timestamp",
          "type": "uint256"
        }
      ],
      "name": "MintOperationDebug",
      "type": "event"
    },
    {
      "anonymous": false,
      "inputs": [
        {
          "indexed": true,
          "internalType": "bytes32",
          "name": "operationId",
          "type": "bytes32"
        },
        {
          "indexed": false,
          "internalType": "string",
          "name": "operationType",
          "type": "string"
        },
        {
          "indexed": true,
          "internalType": "address",
          "name": "executor",
          "type": "address"
        },
        {
          "indexed": false,
          "internalType": "uint256",
          "name": "timestamp",
          "type": "uint256"
        },
        {
          "indexed": false,
          "internalType": "bool",
          "name": "success",
          "type": "bool"
        },
        {
          "indexed": false,
          "internalType": "bytes",
          "name": "result",
          "type": "bytes"
        }
      ],
      "name": "OperationCompleted",
      "type": "event"
    },
    {
      "anonymous": false,
      "inputs": [
        {
          "indexed": true,
          "internalType": "bytes32",
          "name": "operationId",
          "type": "bytes32"
        },
        {
          "indexed": false,
          "internalType": "string",
          "name": "operationType",
          "type": "string"
        },
        {
          "indexed": true,
          "internalType": "address",
          "name": "executor",
          "type": "address"
        },
        {
          "indexed": false,
          "internalType": "uint256",
          "name": "timestamp",
          "type": "uint256"
        },
        {
          "indexed": false,
          "internalType": "bytes",
          "name": "data",
          "type": "bytes"
        }
      ],
      "name": "OperationStarted",
      "type": "event"
    },
    {
      "anonymous": false,
      "inputs": [
        {
          "indexed": false,
          "internalType": "bool",
          "name": "paused",
          "type": "bool"
        },
        {
          "indexed": true,
          "internalType": "address",
          "name": "executor",
          "type": "address"
        },
        {
          "indexed": false,
          "internalType": "uint256",
          "name": "timestamp",
          "type": "uint256"
        }
      ],
      "name": "PauseOperationDebug",
      "type": "event"
    },
    {
      "anonymous": false,
      "inputs": [
        {
          "indexed": false,
          "internalType": "address",
          "name": "account",
          "type": "address"
        }
      ],
      "name": "Paused",
      "type": "event"
    },
    {
      "anonymous": false,
      "inputs": [
        {
          "indexed": true,
          "internalType": "bytes32",
          "name": "role",
          "type": "bytes32"
        },
        {
          "indexed": true,
          "internalType": "bytes32",
          "name": "previousAdminRole",
          "type": "bytes32"
        },
        {
          "indexed": true,
          "internalType": "bytes32",
          "name": "newAdminRole",
          "type": "bytes32"
        }
      ],
      "name": "RoleAdminChanged",
      "type": "event"
    },
    {
      "anonymous": false,
      "inputs": [
        {
          "indexed": true,
          "internalType": "bytes32",
          "name": "role",
          "type": "bytes32"
        },
        {
          "indexed": true,
          "internalType": "address",
          "name": "account",
          "type": "address"
        },
        {
          "indexed": true,
          "internalType": "address",
          "name": "sender",
          "type": "address"
        }
      ],
      "name": "RoleGranted",
      "type": "event"
    },
    {
      "anonymous": false,
      "inputs": [
        {
          "indexed": true,
          "internalType": "bytes32",
          "name": "role",
          "type": "bytes32"
        },
        {
          "indexed": true,
          "internalType": "address",
          "name": "account",
          "type": "address"
        },
        {
          "indexed": false,
          "internalType": "bool",
          "name": "granted",
          "type": "bool"
        },
        {
          "indexed": true,
          "internalType": "address",
          "name": "executor",
          "type": "address"
        },
        {
          "indexed": false,
          "internalType": "uint256",
          "name": "timestamp",
          "type": "uint256"
        }
      ],
      "name": "RoleOperationDebug",
      "type": "event"
    },
    {
      "anonymous": false,
      "inputs": [
        {
          "indexed": true,
          "internalType": "bytes32",
          "name": "role",
          "type": "bytes32"
        },
        {
          "indexed": true,
          "internalType": "address",
          "name": "account",
          "type": "address"
        },
        {
          "indexed": true,
          "internalType": "address",
          "name": "sender",
          "type": "address"
        }
      ],
      "name": "RoleRevoked",
      "type": "event"
    },
    {
      "anonymous": false,
      "inputs": [
        {
          "indexed": true,
          "internalType": "address",
          "name": "from",
          "type": "address"
        },
        {
          "indexed": true,
          "internalType": "address",
          "name": "to",
          "type": "address"
        },
        {
          "indexed": false,
          "internalType": "uint256",
          "name": "value",
          "type": "uint256"
        }
      ],
      "name": "Transfer",
      "type": "event"
    },
    {
      "anonymous": false,
      "inputs": [
        {
          "indexed": true,
          "internalType": "address",
          "name": "account",
          "type": "address"
        }
      ],
      "name": "Unblocked",
      "type": "event"
    },
    {
      "anonymous": false,
      "inputs": [
        {
          "indexed": true,
          "internalType": "address",
          "name": "account",
          "type": "address"
        }
      ],
      "name": "Unfrozen",
      "type": "event"
    },
    {
      "anonymous": false,
      "inputs": [
        {
          "indexed": false,
          "internalType": "address",
          "name": "account",
          "type": "address"
        }
      ],
      "name": "Unpaused",
      "type": "event"
    },
    {
      "anonymous": false,
      "inputs": [
        {
          "indexed": true,
          "internalType": "address",
          "name": "implementation",
          "type": "address"
        }
      ],
      "name": "Upgraded",
      "type": "event"
    },
    {
      "inputs": [],
      "name": "BLOCKER_ROLE",
      "outputs": [
        {
          "internalType": "bytes32",
          "name": "",
          "type": "bytes32"
        }
      ],
      "stateMutability": "view",
      "type": "function"
    },
    {
      "inputs": [],
      "name": "BURNER_ROLE",
      "outputs": [
        {
          "internalType": "bytes32",
          "name": "",
          "type": "bytes32"
        }
      ],
      "stateMutability": "view",
      "type": "function"
    },
    {
      "inputs": [],
      "name": "DEFAULT_ADMIN_ROLE",
      "outputs": [
        {
          "internalType": "bytes32",
          "name": "",
          "type": "bytes32"
        }
      ],
      "stateMutability": "view",
      "type": "function"
    },
    {
      "inputs": [],
      "name": "DOMAIN_SEPARATOR",
      "outputs": [
        {
          "internalType": "bytes32",
          "name": "",
          "type": "bytes32"
        }
      ],
      "stateMutability": "view",
      "type": "function"
    },
    {
      "inputs": [],
      "name": "FEE_ADMIN_ROLE",
      "outputs": [
        {
          "internalType": "bytes32",
          "name": "",
          "type": "bytes32"
        }
      ],
      "stateMutability": "view",
      "type": "function"
    },
    {
      "inputs": [],
      "name": "FREEZER_ROLE",
      "outputs": [
        {
          "internalType": "bytes32",
          "name": "",
          "type": "bytes32"
        }
      ],
      "stateMutability": "view",
      "type": "function"
    },
    {
      "inputs": [],
      "name": "MAX_FEE_BASIS_POINTS",
      "outputs": [
        {
          "internalType": "uint16",
          "name": "",
          "type": "uint16"
        }
      ],
      "stateMutability": "view",
      "type": "function"
    },
    {
      "inputs": [],
      "name": "MINTER_ROLE",
      "outputs": [
        {
          "internalType": "bytes32",
          "name": "",
          "type": "bytes32"
        }
      ],
      "stateMutability": "view",
      "type": "function"
    },
    {
      "inputs": [],
      "name": "PAUSER_ROLE",
      "outputs": [
        {
          "internalType": "bytes32",
          "name": "",
          "type": "bytes32"
        }
      ],
      "stateMutability": "view",
      "type": "function"
    },
    {
      "inputs": [],
      "name": "RECOVERER_ROLE",
      "outputs": [
        {
          "internalType": "bytes32",
          "name": "",
          "type": "bytes32"
        }
      ],
      "stateMutability": "view",
      "type": "function"
    },
    {
      "inputs": [],
      "name": "UPGRADER_ROLE",
      "outputs": [
        {
          "internalType": "bytes32",
          "name": "",
          "type": "bytes32"
        }
      ],
      "stateMutability": "view",
      "type": "function"
    },
    {
      "inputs": [],
      "name": "UPGRADE_INTERFACE_VERSION",
      "outputs": [
        {
          "internalType": "string",
          "name": "",
          "type": "string"
        }
      ],
      "stateMutability": "view",
      "type": "function"
    },
    {
      "inputs": [
        {
          "internalType": "address",
          "name": "account",
          "type": "address"
        }
      ],
      "name": "addFeeFree",
      "outputs": [],
      "stateMutability": "nonpayable",
      "type": "function"
    },
    {
      "inputs": [
        {
          "internalType": "address",
          "name": "owner",
          "type": "address"
        },
        {
          "internalType": "address",
          "name": "spender",
          "type": "address"
        }
      ],
      "name": "allowance",
      "outputs": [
        {
          "internalType": "uint256",
          "name": "",
          "type": "uint256"
        }
      ],
      "stateMutability": "view",
      "type": "function"
    },
    {
      "inputs": [
        {
          "internalType": "address",
          "name": "spender",
          "type": "address"
        },
        {
          "internalType": "uint256",
          "name": "value",
          "type": "uint256"
        }
      ],
      "name": "approve",
      "outputs": [
        {
          "internalType": "bool",
          "name": "",
          "type": "bool"
        }
      ],
      "stateMutability": "nonpayable",
      "type": "function"
    },
    {
      "inputs": [
        {
          "internalType": "address",
          "name": "spender",
          "type": "address"
        },
        {
          "internalType": "uint256",
          "name": "value",
          "type": "uint256"
        }
      ],
      "name": "approveAndCall",
      "outputs": [
        {
          "internalType": "bool",
          "name": "",
          "type": "bool"
        }
      ],
      "stateMutability": "nonpayable",
      "type": "function"
    },
    {
      "inputs": [
        {
          "internalType": "address",
          "name": "spender",
          "type": "address"
        },
        {
          "internalType": "uint256",
          "name": "value",
          "type": "uint256"
        },
        {
          "internalType": "bytes",
          "name": "data",
          "type": "bytes"
        }
      ],
      "name": "approveAndCall",
      "outputs": [
        {
          "internalType": "bool",
          "name": "",
          "type": "bool"
        }
      ],
      "stateMutability": "nonpayable",
      "type": "function"
    },
    {
      "inputs": [
        {
          "internalType": "address",
          "name": "authorizer",
          "type": "address"
        },
        {
          "internalType": "bytes32",
          "name": "nonce",
          "type": "bytes32"
        }
      ],
      "name": "authorizationState",
      "outputs": [
        {
          "internalType": "bool",
          "name": "",
          "type": "bool"
        }
      ],
      "stateMutability": "view",
      "type": "function"
    },
    {
      "inputs": [
        {
          "internalType": "address",
          "name": "account",
          "type": "address"
        }
      ],
      "name": "availableBalanceOf",
      "outputs": [
        {
          "internalType": "uint256",
          "name": "",
          "type": "uint256"
        }
      ],
      "stateMutability": "view",
      "type": "function"
    },
    {
      "inputs": [
        {
          "internalType": "address",
          "name": "account",
          "type": "address"
        }
      ],
      "name": "balanceOf",
      "outputs": [
        {
          "internalType": "uint256",
          "name": "",
          "type": "uint256"
        }
      ],
      "stateMutability": "view",
      "type": "function"
    },
    {
      "inputs": [
        {
          "internalType": "address",
          "name": "account",
          "type": "address"
        }
      ],
      "name": "blockAddress",
      "outputs": [],
      "stateMutability": "nonpayable",
      "type": "function"
    },
    {
      "inputs": [
        {
          "internalType": "address",
          "name": "account",
          "type": "address"
        }
      ],
      "name": "blockUser",
      "outputs": [],
      "stateMutability": "nonpayable",
      "type": "function"
    },
    {
      "inputs": [
        {
          "internalType": "address",
          "name": "from",
          "type": "address"
        },
        {
          "internalType": "uint256",
          "name": "amount",
          "type": "uint256"
        }
      ],
      "name": "burn",
      "outputs": [],
      "stateMutability": "nonpayable",
      "type": "function"
    },
    {
      "inputs": [
        {
          "internalType": "address",
          "name": "authorizer",
          "type": "address"
        },
        {
          "internalType": "bytes32",
          "name": "nonce",
          "type": "bytes32"
        },
        {
          "internalType": "uint8",
          "name": "v",
          "type": "uint8"
        },
        {
          "internalType": "bytes32",
          "name": "r",
          "type": "bytes32"
        },
        {
          "internalType": "bytes32",
          "name": "s",
          "type": "bytes32"
        }
      ],
      "name": "cancelAuthorization",
      "outputs": [],
      "stateMutability": "nonpayable",
      "type": "function"
    },
    {
      "inputs": [
        {
          "internalType": "address",
          "name": "account",
          "type": "address"
        }
      ],
      "name": "debugRoles",
      "outputs": [
        {
          "internalType": "bool",
          "name": "admin",
          "type": "bool"
        },
        {
          "internalType": "bool",
          "name": "minter",
          "type": "bool"
        },
        {
          "internalType": "bool",
          "name": "burner",
          "type": "bool"
        }
      ],
      "stateMutability": "view",
      "type": "function"
    },
    {
      "inputs": [],
      "name": "decimals",
      "outputs": [
        {
          "internalType": "uint8",
          "name": "",
          "type": "uint8"
        }
      ],
      "stateMutability": "view",
      "type": "function"
    },
    {
      "inputs": [],
      "name": "eip712Domain",
      "outputs": [
        {
          "internalType": "bytes1",
          "name": "fields",
          "type": "bytes1"
        },
        {
          "internalType": "string",
          "name": "name",
          "type": "string"
        },
        {
          "internalType": "string",
          "name": "version",
          "type": "string"
        },
        {
          "internalType": "uint256",
          "name": "chainId",
          "type": "uint256"
        },
        {
          "internalType": "address",
          "name": "verifyingContract",
          "type": "address"
        },
        {
          "internalType": "bytes32",
          "name": "salt",
          "type": "bytes32"
        },
        {
          "internalType": "uint256[]",
          "name": "extensions",
          "type": "uint256[]"
        }
      ],
      "stateMutability": "view",
      "type": "function"
    },
    {
      "inputs": [],
      "name": "emitHealthCheck",
      "outputs": [],
      "stateMutability": "nonpayable",
      "type": "function"
    },
    {
      "inputs": [],
      "name": "fee",
      "outputs": [
        {
          "internalType": "uint256",
          "name": "",
          "type": "uint256"
        }
      ],
      "stateMutability": "view",
      "type": "function"
    },
    {
      "inputs": [],
      "name": "feeCollector",
      "outputs": [
        {
          "internalType": "address",
          "name": "",
          "type": "address"
        }
      ],
      "stateMutability": "view",
      "type": "function"
    },
    {
      "inputs": [
        {
          "internalType": "address",
          "name": "account",
          "type": "address"
        },
        {
          "internalType": "uint256",
          "name": "amount",
          "type": "uint256"
        }
      ],
      "name": "freeze",
      "outputs": [],
      "stateMutability": "nonpayable",
      "type": "function"
    },
    {
      "inputs": [
        {
          "internalType": "address",
          "name": "account",
          "type": "address"
        }
      ],
      "name": "freeze",
      "outputs": [],
      "stateMutability": "nonpayable",
      "type": "function"
    },
    {
      "inputs": [
        {
          "internalType": "address",
          "name": "account",
          "type": "address"
        }
      ],
      "name": "freezeAll",
      "outputs": [],
      "stateMutability": "nonpayable",
      "type": "function"
    },
    {
      "inputs": [
        {
          "internalType": "address",
          "name": "account",
          "type": "address"
        }
      ],
      "name": "frozenOf",
      "outputs": [
        {
          "internalType": "uint256",
          "name": "",
          "type": "uint256"
        }
      ],
      "stateMutability": "view",
      "type": "function"
    },
    {
      "inputs": [],
      "name": "getCombinedValue",
      "outputs": [
        {
          "internalType": "uint256",
          "name": "",
          "type": "uint256"
        }
      ],
      "stateMutability": "view",
      "type": "function"
    },
    {
      "inputs": [
        {
          "internalType": "bytes32",
          "name": "role",
          "type": "bytes32"
        }
      ],
      "name": "getRoleAdmin",
      "outputs": [
        {
          "internalType": "bytes32",
          "name": "",
          "type": "bytes32"
        }
      ],
      "stateMutability": "view",
      "type": "function"
    },
    {
      "inputs": [],
      "name": "getSystemStatus",
      "outputs": [
        {
          "internalType": "string",
          "name": "contractVersion",
          "type": "string"
        },
        {
          "internalType": "uint256",
          "name": "_totalSupply",
          "type": "uint256"
        },
        {
          "internalType": "bool",
          "name": "_paused",
          "type": "bool"
        },
        {
          "internalType": "uint256",
          "name": "_fee",
          "type": "uint256"
        },
        {
          "internalType": "address",
          "name": "feeCollectorAddr",
          "type": "address"
        },
        {
          "internalType": "uint256",
          "name": "_blockNumber",
          "type": "uint256"
        },
        {
          "internalType": "uint256",
          "name": "_timestamp",
          "type": "uint256"
        }
      ],
      "stateMutability": "view",
      "type": "function"
    },
    {
      "inputs": [
        {
          "internalType": "bytes32",
          "name": "role",
          "type": "bytes32"
        },
        {
          "internalType": "address",
          "name": "account",
          "type": "address"
        }
      ],
      "name": "grantRole",
      "outputs": [],
      "stateMutability": "nonpayable",
      "type": "function"
    },
    {
      "inputs": [
        {
          "internalType": "bytes32",
          "name": "role",
          "type": "bytes32"
        },
        {
          "internalType": "address",
          "name": "account",
          "type": "address"
        }
      ],
      "name": "hasRole",
      "outputs": [
        {
          "internalType": "bool",
          "name": "",
          "type": "bool"
        }
      ],
      "stateMutability": "view",
      "type": "function"
    },
    {
      "inputs": [],
      "name": "healthCheck",
      "outputs": [
        {
          "internalType": "bool",
          "name": "success",
          "type": "bool"
        },
        {
          "internalType": "uint256",
          "name": "totalSupply",
          "type": "uint256"
        },
        {
          "internalType": "uint256",
          "name": "activeUsers",
          "type": "uint256"
        },
        {
          "internalType": "bool",
          "name": "isPaused",
          "type": "bool"
        },
        {
          "internalType": "uint256",
          "name": "currentFee",
          "type": "uint256"
        },
        {
          "internalType": "address",
          "name": "feeCollector",
          "type": "address"
        }
      ],
      "stateMutability": "view",
      "type": "function"
    },
    {
      "inputs": [
        {
          "internalType": "string",
          "name": "name_",
          "type": "string"
        },
        {
          "internalType": "string",
          "name": "symbol_",
          "type": "string"
        },
        {
          "internalType": "uint256",
          "name": "initialSupply_",
          "type": "uint256"
        },
        {
          "internalType": "address",
          "name": "initialHolder_",
          "type": "address"
        },
        {
          "internalType": "uint256",
          "name": "initialFee_",
          "type": "uint256"
        },
        {
          "internalType": "address",
          "name": "feeCollector_",
          "type": "address"
        },
        {
          "internalType": "address",
          "name": "defaultAdmin_",
          "type": "address"
        }
      ],
      "name": "initialize",
      "outputs": [],
      "stateMutability": "nonpayable",
      "type": "function"
    },
    {
      "inputs": [
        {
          "internalType": "uint256",
          "name": "_newVariable",
          "type": "uint256"
        },
        {
          "internalType": "string",
          "name": "_newString",
          "type": "string"
        }
      ],
      "name": "initializeV2",
      "outputs": [],
      "stateMutability": "nonpayable",
      "type": "function"
    },
    {
      "inputs": [
        {
          "internalType": "address",
          "name": "account",
          "type": "address"
        }
      ],
      "name": "isAdmin",
      "outputs": [
        {
          "internalType": "bool",
          "name": "",
          "type": "bool"
        }
      ],
      "stateMutability": "view",
      "type": "function"
    },
    {
      "inputs": [
        {
          "internalType": "address",
          "name": "account",
          "type": "address"
        }
      ],
      "name": "isBlocked",
      "outputs": [
        {
          "internalType": "bool",
          "name": "",
          "type": "bool"
        }
      ],
      "stateMutability": "view",
      "type": "function"
    },
    {
      "inputs": [
        {
          "internalType": "address",
          "name": "account",
          "type": "address"
        }
      ],
      "name": "isFeeFree",
      "outputs": [
        {
          "internalType": "bool",
          "name": "",
          "type": "bool"
        }
      ],
      "stateMutability": "view",
      "type": "function"
    },
    {
      "inputs": [
        {
          "internalType": "address",
          "name": "account",
          "type": "address"
        }
      ],
      "name": "isFrozen",
      "outputs": [
        {
          "internalType": "bool",
          "name": "",
          "type": "bool"
        }
      ],
      "stateMutability": "view",
      "type": "function"
    },
    {
      "inputs": [
        {
          "internalType": "address",
          "name": "to",
          "type": "address"
        },
        {
          "internalType": "uint256",
          "name": "amount",
          "type": "uint256"
        }
      ],
      "name": "mint",
      "outputs": [],
      "stateMutability": "nonpayable",
      "type": "function"
    },
    {
      "inputs": [],
      "name": "name",
      "outputs": [
        {
          "internalType": "string",
          "name": "",
          "type": "string"
        }
      ],
      "stateMutability": "view",
      "type": "function"
    },
    {
      "inputs": [],
      "name": "newString",
      "outputs": [
        {
          "internalType": "string",
          "name": "",
          "type": "string"
        }
      ],
      "stateMutability": "view",
      "type": "function"
    },
    {
      "inputs": [],
      "name": "newVariable",
      "outputs": [
        {
          "internalType": "uint256",
          "name": "",
          "type": "uint256"
        }
      ],
      "stateMutability": "view",
      "type": "function"
    },
    {
      "inputs": [
        {
          "internalType": "address",
          "name": "owner",
          "type": "address"
        }
      ],
      "name": "nonces",
      "outputs": [
        {
          "internalType": "uint256",
          "name": "",
          "type": "uint256"
        }
      ],
      "stateMutability": "view",
      "type": "function"
    },
    {
      "inputs": [
        {
          "internalType": "address",
          "name": "",
          "type": "address"
        },
        {
          "internalType": "address",
          "name": "",
          "type": "address"
        },
        {
          "internalType": "uint256",
          "name": "",
          "type": "uint256"
        },
        {
          "internalType": "bytes",
          "name": "",
          "type": "bytes"
        }
      ],
      "name": "onERC721Received",
      "outputs": [
        {
          "internalType": "bytes4",
          "name": "",
          "type": "bytes4"
        }
      ],
      "stateMutability": "nonpayable",
      "type": "function"
    },
    {
      "inputs": [],
      "name": "pause",
      "outputs": [],
      "stateMutability": "nonpayable",
      "type": "function"
    },
    {
      "inputs": [],
      "name": "paused",
      "outputs": [
        {
          "internalType": "bool",
          "name": "",
          "type": "bool"
        }
      ],
      "stateMutability": "view",
      "type": "function"
    },
    {
      "inputs": [
        {
          "internalType": "address",
          "name": "owner",
          "type": "address"
        },
        {
          "internalType": "address",
          "name": "spender",
          "type": "address"
        },
        {
          "internalType": "uint256",
          "name": "value",
          "type": "uint256"
        },
        {
          "internalType": "uint256",
          "name": "deadline",
          "type": "uint256"
        },
        {
          "internalType": "uint8",
          "name": "v",
          "type": "uint8"
        },
        {
          "internalType": "bytes32",
          "name": "r",
          "type": "bytes32"
        },
        {
          "internalType": "bytes32",
          "name": "s",
          "type": "bytes32"
        }
      ],
      "name": "permit",
      "outputs": [],
      "stateMutability": "nonpayable",
      "type": "function"
    },
    {
      "inputs": [],
      "name": "proxiableUUID",
      "outputs": [
        {
          "internalType": "bytes32",
          "name": "",
          "type": "bytes32"
        }
      ],
      "stateMutability": "view",
      "type": "function"
    },
    {
      "inputs": [
        {
          "internalType": "address",
          "name": "from",
          "type": "address"
        },
        {
          "internalType": "address",
          "name": "to",
          "type": "address"
        },
        {
          "internalType": "uint256",
          "name": "value",
          "type": "uint256"
        },
        {
          "internalType": "uint256",
          "name": "validAfter",
          "type": "uint256"
        },
        {
          "internalType": "uint256",
          "name": "validBefore",
          "type": "uint256"
        },
        {
          "internalType": "bytes32",
          "name": "nonce",
          "type": "bytes32"
        },
        {
          "internalType": "uint8",
          "name": "v",
          "type": "uint8"
        },
        {
          "internalType": "bytes32",
          "name": "r",
          "type": "bytes32"
        },
        {
          "internalType": "bytes32",
          "name": "s",
          "type": "bytes32"
        }
      ],
      "name": "receiveWithAuthorization",
      "outputs": [],
      "stateMutability": "nonpayable",
      "type": "function"
    },
    {
      "inputs": [
        {
          "internalType": "address",
          "name": "token",
          "type": "address"
        },
        {
          "internalType": "address",
          "name": "to",
          "type": "address"
        },
        {
          "internalType": "uint256",
          "name": "amount",
          "type": "uint256"
        }
      ],
      "name": "recoverERC20",
      "outputs": [],
      "stateMutability": "nonpayable",
      "type": "function"
    },
    {
      "inputs": [
        {
          "internalType": "address",
          "name": "nft",
          "type": "address"
        },
        {
          "internalType": "address",
          "name": "to",
          "type": "address"
        },
        {
          "internalType": "uint256",
          "name": "tokenId",
          "type": "uint256"
        }
      ],
      "name": "recoverERC721",
      "outputs": [],
      "stateMutability": "nonpayable",
      "type": "function"
    },
    {
      "inputs": [
        {
          "internalType": "address payable",
          "name": "to",
          "type": "address"
        },
        {
          "internalType": "uint256",
          "name": "amount",
          "type": "uint256"
        }
      ],
      "name": "recoverETH",
      "outputs": [],
      "stateMutability": "nonpayable",
      "type": "function"
    },
    {
      "inputs": [
        {
          "internalType": "address",
          "name": "account",
          "type": "address"
        },
        {
          "internalType": "uint256",
          "name": "amount",
          "type": "uint256"
        }
      ],
      "name": "reduceFrozen",
      "outputs": [],
      "stateMutability": "nonpayable",
      "type": "function"
    },
    {
      "inputs": [
        {
          "internalType": "address",
          "name": "account",
          "type": "address"
        }
      ],
      "name": "removeFeeFree",
      "outputs": [],
      "stateMutability": "nonpayable",
      "type": "function"
    },
    {
      "inputs": [
        {
          "internalType": "bytes32",
          "name": "role",
          "type": "bytes32"
        },
        {
          "internalType": "address",
          "name": "callerConfirmation",
          "type": "address"
        }
      ],
      "name": "renounceRole",
      "outputs": [],
      "stateMutability": "nonpayable",
      "type": "function"
    },
    {
      "inputs": [
        {
          "internalType": "address",
          "name": "account",
          "type": "address"
        }
      ],
      "name": "resetUser",
      "outputs": [],
      "stateMutability": "nonpayable",
      "type": "function"
    },
    {
      "inputs": [
        {
          "internalType": "bytes32",
          "name": "role",
          "type": "bytes32"
        },
        {
          "internalType": "address",
          "name": "account",
          "type": "address"
        }
      ],
      "name": "revokeRole",
      "outputs": [],
      "stateMutability": "nonpayable",
      "type": "function"
    },
    {
      "inputs": [
        {
          "internalType": "uint256",
          "name": "newFee",
          "type": "uint256"
        }
      ],
      "name": "setFee",
      "outputs": [],
      "stateMutability": "nonpayable",
      "type": "function"
    },
    {
      "inputs": [
        {
          "internalType": "address",
          "name": "collector",
          "type": "address"
        }
      ],
      "name": "setFeeCollector",
      "outputs": [],
      "stateMutability": "nonpayable",
      "type": "function"
    },
    {
      "inputs": [
        {
          "internalType": "string",
          "name": "_newString",
          "type": "string"
        }
      ],
      "name": "setNewString",
      "outputs": [],
      "stateMutability": "nonpayable",
      "type": "function"
    },
    {
      "inputs": [
        {
          "internalType": "uint256",
          "name": "_newVariable",
          "type": "uint256"
        }
      ],
      "name": "setNewVariable",
      "outputs": [],
      "stateMutability": "nonpayable",
      "type": "function"
    },
    {
      "inputs": [
        {
          "internalType": "bytes4",
          "name": "interfaceId",
          "type": "bytes4"
        }
      ],
      "name": "supportsInterface",
      "outputs": [
        {
          "internalType": "bool",
          "name": "",
          "type": "bool"
        }
      ],
      "stateMutability": "view",
      "type": "function"
    },
    {
      "inputs": [],
      "name": "symbol",
      "outputs": [
        {
          "internalType": "string",
          "name": "",
          "type": "string"
        }
      ],
      "stateMutability": "view",
      "type": "function"
    },
    {
      "inputs": [],
      "name": "totalSupply",
      "outputs": [
        {
          "internalType": "uint256",
          "name": "",
          "type": "uint256"
        }
      ],
      "stateMutability": "view",
      "type": "function"
    },
    {
      "inputs": [
        {
          "internalType": "address",
          "name": "to",
          "type": "address"
        },
        {
          "internalType": "uint256",
          "name": "value",
          "type": "uint256"
        }
      ],
      "name": "transfer",
      "outputs": [
        {
          "internalType": "bool",
          "name": "",
          "type": "bool"
        }
      ],
      "stateMutability": "nonpayable",
      "type": "function"
    },
    {
      "inputs": [
        {
          "internalType": "address",
          "name": "to",
          "type": "address"
        },
        {
          "internalType": "uint256",
          "name": "value",
          "type": "uint256"
        }
      ],
      "name": "transferAndCall",
      "outputs": [
        {
          "internalType": "bool",
          "name": "",
          "type": "bool"
        }
      ],
      "stateMutability": "nonpayable",
      "type": "function"
    },
    {
      "inputs": [
        {
          "internalType": "address",
          "name": "to",
          "type": "address"
        },
        {
          "internalType": "uint256",
          "name": "value",
          "type": "uint256"
        },
        {
          "internalType": "bytes",
          "name": "data",
          "type": "bytes"
        }
      ],
      "name": "transferAndCall",
      "outputs": [
        {
          "internalType": "bool",
          "name": "",
          "type": "bool"
        }
      ],
      "stateMutability": "nonpayable",
      "type": "function"
    },
    {
      "inputs": [
        {
          "internalType": "address",
          "name": "from",
          "type": "address"
        },
        {
          "internalType": "address",
          "name": "to",
          "type": "address"
        },
        {
          "internalType": "uint256",
          "name": "value",
          "type": "uint256"
        }
      ],
      "name": "transferFrom",
      "outputs": [
        {
          "internalType": "bool",
          "name": "",
          "type": "bool"
        }
      ],
      "stateMutability": "nonpayable",
      "type": "function"
    },
    {
      "inputs": [
        {
          "internalType": "address",
          "name": "from",
          "type": "address"
        },
        {
          "internalType": "address",
          "name": "to",
          "type": "address"
        },
        {
          "internalType": "uint256",
          "name": "value",
          "type": "uint256"
        },
        {
          "internalType": "bytes",
          "name": "data",
          "type": "bytes"
        }
      ],
      "name": "transferFromAndCall",
      "outputs": [
        {
          "internalType": "bool",
          "name": "",
          "type": "bool"
        }
      ],
      "stateMutability": "nonpayable",
      "type": "function"
    },
    {
      "inputs": [
        {
          "internalType": "address",
          "name": "from",
          "type": "address"
        },
        {
          "internalType": "address",
          "name": "to",
          "type": "address"
        },
        {
          "internalType": "uint256",
          "name": "value",
          "type": "uint256"
        }
      ],
      "name": "transferFromAndCall",
      "outputs": [
        {
          "internalType": "bool",
          "name": "",
          "type": "bool"
        }
      ],
      "stateMutability": "nonpayable",
      "type": "function"
    },
    {
      "inputs": [
        {
          "internalType": "address",
          "name": "from",
          "type": "address"
        },
        {
          "internalType": "address",
          "name": "to",
          "type": "address"
        },
        {
          "internalType": "uint256",
          "name": "value",
          "type": "uint256"
        },
        {
          "internalType": "uint256",
          "name": "validAfter",
          "type": "uint256"
        },
        {
          "internalType": "uint256",
          "name": "validBefore",
          "type": "uint256"
        },
        {
          "internalType": "bytes32",
          "name": "nonce",
          "type": "bytes32"
        },
        {
          "internalType": "uint8",
          "name": "v",
          "type": "uint8"
        },
        {
          "internalType": "bytes32",
          "name": "r",
          "type": "bytes32"
        },
        {
          "internalType": "bytes32",
          "name": "s",
          "type": "bytes32"
        }
      ],
      "name": "transferWithAuthorization",
      "outputs": [],
      "stateMutability": "nonpayable",
      "type": "function"
    },
    {
      "inputs": [
        {
          "internalType": "address",
          "name": "account",
          "type": "address"
        }
      ],
      "name": "unblock",
      "outputs": [],
      "stateMutability": "nonpayable",
      "type": "function"
    },
    {
      "inputs": [
        {
          "internalType": "address",
          "name": "account",
          "type": "address"
        }
      ],
      "name": "unfreeze",
      "outputs": [],
      "stateMutability": "nonpayable",
      "type": "function"
    },
    {
      "inputs": [],
      "name": "unpause",
      "outputs": [],
      "stateMutability": "nonpayable",
      "type": "function"
    },
    {
      "inputs": [
        {
          "internalType": "address",
          "name": "newImplementation",
          "type": "address"
        },
        {
          "internalType": "bytes",
          "name": "data",
          "type": "bytes"
        }
      ],
      "name": "upgradeToAndCall",
      "outputs": [],
      "stateMutability": "payable",
      "type": "function"
    },
    {
      "inputs": [],
      "name": "version",
      "outputs": [
        {
          "internalType": "string",
          "name": "",
          "type": "string"
        }
      ],
      "stateMutability": "pure",
      "type": "function"
    },
    {
      "stateMutability": "payable",
      "type": "receive"
    }
  ],
  "bytecode": "0x60a060405230608052348015610013575f5ffd5b5061001c610029565b610024610029565b6100db565b7ff0c57e16840df040f15088dc2f81fe391c3923bec73e23a9662efc9c229c6a00805468010000000000000000900460ff16156100795760405163f92ee8a960e01b815260040160405180910390fd5b80546001600160401b03908116146100d85780546001600160401b0319166001600160401b0390811782556040519081527fc7f505b2f371ae2175ee4913f4499e1f2633a7b5936321eed1cdaeb6115181d29060200160405180910390a15b50565b608051614d126101015f395f81816130a7015281816130d001526132330152614d125ff3fe608060405260043610610492575f3560e01c806369fe0e2d11610257578063b1b387d81161013f578063ddca3f43116100be578063e63ab1e911610083578063e63ab1e914610ea1578063e94a010214610ed4578063ef55bec614610ef3578063f1d22be014610f12578063f72c0d8b14610f31578063fbac395114610f64575f5ffd5b8063ddca3f4314610e10578063dffa0e3314610e24578063e3ee160e14610e43578063e45c084d14610e62578063e583983614610e82575f5ffd5b8063d505accf11610104578063d505accf14610d61578063d539139314610d80578063d547741f14610db3578063d8fbe99414610dd2578063dd62ed3e14610df1575f5ffd5b8063b1b387d814610c8a578063b252720b14610ca9578063c1d34b8914610cf7578063c415b95c14610d16578063cae9ca5114610d42575f5ffd5b806395d89b41116101d6578063a9059cbb1161019b578063a9059cbb14610bc9578063a9c9c2a114610be8578063acf1c94814610bfc578063ad2bb1b314610c1c578063ad3cb1cc14610c3b578063b02f9be614610c6b575f5ffd5b806395d89b4114610b455780639dc29fac14610b595780639e36eda614610b78578063a217fddf14610b97578063a42dce8014610baa575f5ffd5b80638456cb591161021c5780638456cb5914610ab857806384b0196e14610acc5780638d1fdf2f14610af35780638d7a72f314610b1257806391d1485414610b26575f5ffd5b806369fe0e2d146109fe57806370a0823114610a1d5780637aaaec8914610a3c5780637ecebe0014610a7a5780638380f98d14610a99575f5ffd5b80633177029f1161037a57806345e9469e116102f957806350c1d19d116102be57806350c1d19d1461092757806352d1902d1461094e57806354fd4d50146109625780635a049a701461099d5780635c975abb146109bc57806367b220a5146109df575f5ffd5b806345e9469e146108a4578063483e77aa146108b85780634befe2ca146108cc5780634cba593a146108f45780634f1ef28614610914575f5ffd5b80633e0c06291161033f5780633e0c0629146108145780633f4ba83a146108335780634000aea01461084757806340c10f191461086657806345c8b1a614610885575f5ffd5b80633177029f14610784578063343959b4146107a35780633644e515146107c257806336568abe146107d65780633da01325146107f5575f5ffd5b80631bf6e00d1161041157806324d7806c116103d657806324d7806c146106ba57806325d998bb146106d9578063282c51f3146106f85780632cdf2c351461072b5780632f2ff15d1461074a578063313ce56714610769575f5ffd5b80631bf6e00d146106205780631c02ea0e1461063f57806323b872dd1461065d578063248a9ca31461067c57806324bce60c1461069b575f5ffd5b80631171bda9116104575780631171bda9146105605780631296ee621461057f57806313b5627e1461059e578063150b7a02146105bd57806318160ddd14610600575f5ffd5b806301ffc9a71461049d57806306a85f0f146104d157806306fdde03146104ff5780630757956c14610520578063095ea7b314610541575f5ffd5b3661049957005b5f5ffd5b3480156104a8575f5ffd5b506104bc6104b736600461422e565b610f83565b60405190151581526020015b60405180910390f35b3480156104dc575f5ffd5b506104f15f516020614bfd5f395f51905f5281565b6040519081526020016104c8565b34801561050a575f5ffd5b50610513610f93565b6040516104c89190614277565b34801561052b575f5ffd5b5061053f61053a36600461429d565b611038565b005b34801561054c575f5ffd5b506104bc61055b36600461429d565b6110c0565b34801561056b575f5ffd5b5061053f61057a3660046142c7565b6110d7565b34801561058a575f5ffd5b506104bc61059936600461429d565b611200565b3480156105a9575f5ffd5b5061053f6105b8366004614305565b611221565b3480156105c8575f5ffd5b506105e76105d73660046143c3565b630a85bd0160e11b949350505050565b6040516001600160e01b031990911681526020016104c8565b34801561060b575f5ffd5b505f516020614c1d5f395f51905f52546104f1565b34801561062b575f5ffd5b506104f161063a366004614305565b611268565b34801561064a575f5ffd5b5061053f61065936600461442a565b5f55565b348015610668575f5ffd5b506104bc6106773660046142c7565b611291565b348015610687575f5ffd5b506104f161069636600461442a565b6112b4565b3480156106a6575f5ffd5b5061053f6106b536600461429d565b6112d4565b3480156106c5575f5ffd5b506104bc6106d4366004614305565b6112fa565b3480156106e4575f5ffd5b506104f16106f3366004614305565b611305565b348015610703575f5ffd5b506104f17f3c11d16cbaffd01df69ce1c404f6340ee057498f5f00246190ea54220576a84881565b348015610736575f5ffd5b5061053f6107453660046142c7565b611340565b348015610755575f5ffd5b5061053f610764366004614441565b6113dd565b348015610774575f5ffd5b50604051601281526020016104c8565b34801561078f575f5ffd5b506104bc61079e36600461429d565b6113ff565b3480156107ae575f5ffd5b5061053f6107bd366004614305565b611419565b3480156107cd575f5ffd5b506104f1611488565b3480156107e1575f5ffd5b5061053f6107f0366004614441565b611496565b348015610800575f5ffd5b5061053f61080f366004614305565b6114c9565b34801561081f575f5ffd5b5061053f61082e36600461429d565b61153b565b34801561083e575f5ffd5b5061053f6115e9565b348015610852575f5ffd5b506104bc61086136600461446f565b6116f8565b348015610871575f5ffd5b5061053f61088036600461429d565b611710565b348015610890575f5ffd5b5061053f61089f366004614305565b611849565b3480156108af575f5ffd5b5061053f6118b3565b3480156108c3575f5ffd5b506104f161192b565b3480156108d7575f5ffd5b506108e16103e781565b60405161ffff90911681526020016104c8565b3480156108ff575f5ffd5b506104f15f516020614c3d5f395f51905f5281565b61053f6109223660046144c3565b611947565b348015610932575f5ffd5b5061093b611962565b6040516104c8979695949392919061450f565b348015610959575f5ffd5b506104f16119e2565b34801561096d575f5ffd5b506040805180820190915260138152720c4b8d8b8c8b58db19585b9d5c0b599a5b985b606a1b6020820152610513565b3480156109a8575f5ffd5b5061053f6109b7366004614570565b6119fd565b3480156109c7575f5ffd5b505f516020614cbd5f395f51905f525460ff166104bc565b3480156109ea575f5ffd5b5061053f6109f9366004614305565b611b55565b348015610a09575f5ffd5b5061053f610a1836600461442a565b611c49565b348015610a28575f5ffd5b506104f1610a37366004614305565b611ca4565b348015610a47575f5ffd5b50610a5b610a56366004614305565b611cae565b60408051931515845291151560208401521515908201526060016104c8565b348015610a85575f5ffd5b506104f1610a94366004614305565b611d1c565b348015610aa4575f5ffd5b5061053f610ab33660046145bc565b611d26565b348015610ac3575f5ffd5b5061053f611d32565b348015610ad7575f5ffd5b50610ae0611e13565b6040516104c897969594939291906145ed565b348015610afe575f5ffd5b5061053f610b0d366004614305565b611e55565b348015610b1d575f5ffd5b506104f15f5481565b348015610b31575f5ffd5b506104bc610b40366004614441565b611f6d565b348015610b50575f5ffd5b50610513611fa3565b348015610b64575f5ffd5b5061053f610b7336600461429d565b611fe1565b348015610b83575f5ffd5b506104bc610b92366004614305565b61214b565b348015610ba2575f5ffd5b506104f15f81565b348015610bb5575f5ffd5b5061053f610bc4366004614305565b612179565b348015610bd4575f5ffd5b506104bc610be336600461429d565b6121e6565b348015610bf3575f5ffd5b506105136121f3565b348015610c07575f5ffd5b506104f15f516020614bbd5f395f51905f5281565b348015610c27575f5ffd5b5061053f610c36366004614305565b61227f565b348015610c46575f5ffd5b50610513604051806040016040528060058152602001640352e302e360dc1b81525081565b348015610c76575f5ffd5b5061053f610c85366004614683565b612371565b348015610c95575f5ffd5b5061053f610ca4366004614305565b612546565b348015610cb4575f5ffd5b50610cbd612590565b6040805196151587526020870195909552938501929092521515606084015260808301526001600160a01b031660a082015260c0016104c8565b348015610d02575f5ffd5b506104bc610d113660046143c3565b61272e565b348015610d21575f5ffd5b50610d2a612751565b6040516001600160a01b0390911681526020016104c8565b348015610d4d575f5ffd5b506104bc610d5c36600461446f565b61276e565b348015610d6c575f5ffd5b5061053f610d7b366004614730565b612786565b348015610d8b575f5ffd5b506104f17f9f2df0fed2c77648de5860a4cc508cd0818c85b8b8a1ab4ceeef8d981c8956a681565b348015610dbe575f5ffd5b5061053f610dcd366004614441565b6128db565b348015610ddd575f5ffd5b506104bc610dec3660046142c7565b6128f7565b348015610dfc575f5ffd5b506104f1610e0b36600461479a565b612912565b348015610e1b575f5ffd5b506104f161295b565b348015610e2f575f5ffd5b5061053f610e3e3660046147c6565b61296c565b348015610e4e575f5ffd5b5061053f610e5d3660046147f3565b612a3b565b348015610e6d575f5ffd5b506104f15f516020614c5d5f395f51905f5281565b348015610e8d575f5ffd5b506104bc610e9c366004614305565b612ab6565b348015610eac575f5ffd5b506104f17f65d7a28e3265b37a6474929f336521b332c1681b933f6cb9f3376673440d862a81565b348015610edf575f5ffd5b506104bc610eee36600461429d565b612ac8565b348015610efe575f5ffd5b5061053f610f0d3660046147f3565b612afe565b348015610f1d575f5ffd5b5061053f610f2c366004614305565b612b27565b348015610f3c575f5ffd5b506104f17f189ab7a9244df0848122154315af71fe140f3db0fe014031783b0946b8c9d2e381565b348015610f6f575f5ffd5b506104bc610f7e366004614305565b612b47565b5f610f8d82612b73565b92915050565b60605f5f516020614bdd5f395f51905f525b9050806003018054610fb690614872565b80601f0160208091040260200160405190810160405280929190818152602001828054610fe290614872565b801561102d5780601f106110045761010080835404028352916020019161102d565b820191905f5260205f20905b81548152906001019060200180831161101057829003601f168201915b505050505091505090565b5f516020614bfd5f395f51905f5261104f81612b97565b5f611058612ba4565b6001600160a01b0385165f90815260208290526040902054909150838110156110945760405163c5083c6960e01b815260040160405180910390fd5b61109e84826148be565b6001600160a01b039095165f9081526020929092525060409020929092555050565b5f336110cd818585612c01565b5060019392505050565b5f516020614bbd5f395f51905f526110ee81612b97565b6001600160a01b03831661111557604051634e46966960e11b815260040160405180910390fd5b6040516001600160a01b038481166024830152604482018490525f91829187169060640160408051601f198184030181529181526020820180516001600160e01b031663a9059cbb60e01b1790525161116e91906148e8565b5f604051808303815f865af19150503d805f81146111a7576040519150601f19603f3d011682016040523d82523d5f602084013e6111ac565b606091505b50915091508115806111da57505f81511180156111da5750808060200190518101906111d891906148f3565b155b156111f8576040516312171d8360e31b815260040160405180910390fd5b505050505050565b5f61121a838360405180602001604052805f8152506116f8565b9392505050565b5f516020614c3d5f395f51905f5261123881612b97565b5f611241612c0e565b6001600160a01b039093165f9081526002909301602052505060409020805460ff19169055565b5f5f611272612ba4565b6001600160a01b039093165f9081526020939093525050604090205490565b5f3361129e858285612c3b565b6112a9858585612c96565b506001949350505050565b5f9081525f516020614c9d5f395f51905f52602052604090206001015490565b5f516020614bfd5f395f51905f526112eb81612b97565b6112f58383612cf3565b505050565b5f610f8d8183611f6d565b5f5f61131083611ca4565b90505f61131c84611268565b905081811061132e57505f9392505050565b61133881836148be565b949350505050565b5f516020614bbd5f395f51905f5261135781612b97565b6001600160a01b03831661137e57604051634e46966960e11b815260040160405180910390fd5b6040513060248201526001600160a01b038481166044830152606482018490525f91829187169060840160408051601f198184030181529181526020820180516001600160e01b03166323b872dd60e01b1790525161116e91906148e8565b6113e6826112b4565b6113ef81612b97565b6113f98383612d32565b50505050565b5f61121a838360405180602001604052805f81525061276e565b5f516020614c5d5f395f51905f5261143081612b97565b5f611439612dda565b6001600160a01b0384165f81815260208390526040808220805460ff191690555192935090917f5c272fb29e21b46870af1850afe89126704c55a7781cc100da3f733e15446c7d9190a2505050565b5f611491612e07565b905090565b6001600160a01b03811633146114bf5760405163334bd91960e11b815260040160405180910390fd5b6112f58282612e10565b5f516020614c5d5f395f51905f526114e081612b97565b5f6114e9612dda565b6001600160a01b0384165f81815260208390526040808220805460ff191660011790555192935090917f75e91ce73c1d3352d8dd3610443539cd33dfe13b1de8f8caae54ec26dd0dc9cb9190a2505050565b5f516020614bbd5f395f51905f5261155281612b97565b6001600160a01b03831661157957604051634e46966960e11b815260040160405180910390fd5b5f836001600160a01b0316836040515f6040518083038185875af1925050503d805f81146115c2576040519150601f19603f3d011682016040523d82523d5f602084013e6115c7565b606091505b50509050806113f9576040516312171d8360e31b815260040160405180910390fd5b7f65d7a28e3265b37a6474929f336521b332c1681b933f6cb9f3376673440d862a61161381612b97565b5f61166160405180604001604052806007815260200166554e504155534560c81b815250335f60405160200161164d911515815260200190565b604051602081830303815290604052612e89565b905061166b612ee5565b604080515f8152426020820152815133927f92f3183da082581f57c760cdbca5b9647f904b2f6053a74fd2efe646104f9f47928290030190a26116f48160405180604001604052806007815260200166554e504155534560c81b8152503360015f6040516020016116e0911515815260200190565b604051602081830303815290604052612f44565b5050565b5f611704338585612f93565b6110cd33858585612f9e565b7f9f2df0fed2c77648de5860a4cc508cd0818c85b8b8a1ab4ceeef8d981c8956a661173a81612b97565b5f611783604051806040016040528060048152602001631352539560e21b81525033868660405160200161164d9291906001600160a01b03929092168252602082015260400190565b90505f61179b5f516020614c1d5f395f51905f525490565b90506117a78585613068565b5f6117bd5f516020614c1d5f395f51905f525490565b9050336001600160a01b0387167f5cf1e85ed9550a8fd02cf6692c8c104b94f98ebceb99feff821e7916ba02fe328785854260408051948552602085019390935291830152606082015260800160405180910390a36111f883604051806040016040528060048152602001631352539560e21b815250336001856040516020016116e091815260200190565b5f516020614bfd5f395f51905f5261186081612b97565b5f611869612ba4565b6001600160a01b0384165f818152602083905260408082208290555192935090917f4feb53e305297ab8fb8f3420c95ea04737addc254a7270d8fc4605d2b9c61dba9190a2505050565b5f5f5f5f5f5f6118c1612590565b955095509550955095509550336001600160a01b03167f59c5d97b22c6894bd791cde43b400e9904967d691cab140660049b6a0ecd7ad96118ff4290565b604080519182526020820189905281018790525f606082015260800160405180910390a2505050505050565b5f80545f516020614c1d5f395f51905f52546114919190614912565b61194f61309c565b61195882613142565b6116f4828261316c565b60605f5f5f5f5f5f61199a6040805180820190915260138152720c4b8d8b8c8b58db19585b9d5c0b599a5b985b606a1b602082015290565b5f516020614c1d5f395f51905f52545f516020614cbd5f395f51905f525460ff166119c361295b565b6119cb612751565b939b929a5090985096509094504393504292509050565b5f6119eb613228565b505f516020614c7d5f395f51905f5290565b604080517f158b0a9edf7a828aad02f63cd515c68ef2f50ba807396f6d12842833a159742960208201526001600160a01b03871691810191909152606081018590525f906080016040516020818303038152906040528051906020012090505f611a6682613271565b90505f611a758287878761329d565b9050876001600160a01b0316816001600160a01b031614611aa957604051638baa579f60e01b815260040160405180910390fd5b5f611ab26132c9565b6001600160a01b038a165f908152602082815260408083208c845290915290205490915060ff1615611af757604051634a8478f960e11b815260040160405180910390fd5b6001600160a01b0389165f818152602083815260408083208c8452909152808220805460ff19166001179055518a92917f98de503528ee59b575ef0c0a2576a82497bfc029a5685b209e9ec333479b10a591a3505050505050505050565b5f516020614c5d5f395f51905f52611b6c81612b97565b5f611bba60405180604001604052806007815260200166554e424c4f434b60c81b81525033855f60405160200161164d9291906001600160a01b039290921682521515602082015260400190565b9050611bc583611419565b336001600160a01b0384167f8106addb9dfab39985b6fea1846b820682215ff8804a8432f0ae61c1cbe424705f4260408051921515835260208301919091520160405180910390a36112f58160405180604001604052806007815260200166554e424c4f434b60c81b8152503360015f6040516020016116e0911515815260200190565b5f516020614c3d5f395f51905f52611c6081612b97565b6103e7821115611c935760405163037664ab60e21b8152600481018390526103e760248201526044015b60405180910390fd5b5f611c9c612c0e565b929092555050565b5f610f8d826132f6565b5f8080611cbb8185611f6d565b611ce57f9f2df0fed2c77648de5860a4cc508cd0818c85b8b8a1ab4ceeef8d981c8956a686611f6d565b611d0f7f3c11d16cbaffd01df69ce1c404f6340ee057498f5f00246190ea54220576a84887611f6d565b9250925092509193909250565b5f610f8d8261330b565b60016116f48282614969565b7f65d7a28e3265b37a6474929f336521b332c1681b933f6cb9f3376673440d862a611d5c81612b97565b5f611d9560405180604001604052806005815260200164504155534560d81b81525033600160405160200161164d911515815260200190565b9050611d9f613333565b6040805160018152426020820152815133927f92f3183da082581f57c760cdbca5b9647f904b2f6053a74fd2efe646104f9f47928290030190a26116f48160405180604001604052806005815260200164504155534560d81b815250336001806040516020016116e0911515815260200190565b5f6060805f5f5f6060611e2461337b565b611e2c6133cc565b604080515f80825260208201909252600f60f81b9b939a50919850469750309650945092509050565b5f516020614bfd5f395f51905f52611e6c81612b97565b5f611eb060405180604001604052806006815260200165465245455a4560d01b815250338560405160200161164d91906001600160a01b0391909116815260200190565b90505f611ebc84611268565b9050611ec784612b27565b5f611ed185611268565b9050336001600160a01b0386167fa177dd8bc3eef96ce1247b1921f551f022625d836f22cd6c4fdb12dcff1f56ca611f0985856148be565b6040805191825260208201879052818101869052426060830152519081900360800190a3611f668360405180604001604052806006815260200165465245455a4560d01b815250336001856040516020016116e091815260200190565b5050505050565b5f9182525f516020614c9d5f395f51905f52602090815260408084206001600160a01b0393909316845291905290205460ff1690565b7f52c63247e1f47db19d5ce0460030c497f067ca4cebf71ba98eeadabe20bace0480546060915f516020614bdd5f395f51905f5291610fb690614872565b7f3c11d16cbaffd01df69ce1c404f6340ee057498f5f00246190ea54220576a84861200b81612b97565b5f61205460405180604001604052806004815260200163212aa92760e11b81525033868660405160200161164d9291906001600160a01b03929092168252602082015260400190565b90505f61206c5f516020614c1d5f395f51905f525490565b90505f61207886611ca4565b905061208486866133f5565b5f61209a5f516020614c1d5f395f51905f525490565b90505f6120a688611ca4565b9050336001600160a01b0389167f09c099768be9b37341aff27193e59e0999f434da892328a70fb28c199d871ec0898786888742604080519687526020870195909552938501929092526060840152608083015260a082015260c00160405180910390a36121418560405180604001604052806004815260200163212aa92760e11b815250336001866040516020016116e091815260200190565b5050505050505050565b5f5f612155612c0e565b6001600160a01b039093165f90815260029093016020525050604090205460ff1690565b5f516020614c3d5f395f51905f5261219081612b97565b6001600160a01b0382166121b75760405163bb0bac9960e01b815260040160405180910390fd5b5f6121c0612c0e565b60010180546001600160a01b0319166001600160a01b0394909416939093179092555050565b5f336110cd818585612c96565b6001805461220090614872565b80601f016020809104026020016040519081016040528092919081815260200182805461222c90614872565b80156122775780601f1061224e57610100808354040283529160200191612277565b820191905f5260205f20905b81548152906001019060200180831161225a57829003601f168201915b505050505081565b5f516020614c5d5f395f51905f5261229681612b97565b5f6122e360405180604001604052806005815260200164424c4f434b60d81b8152503385600160405160200161164d9291906001600160a01b039290921682521515602082015260400190565b90506122ee836114c9565b336001600160a01b0384167f8106addb9dfab39985b6fea1846b820682215ff8804a8432f0ae61c1cbe4247060014260408051921515835260208301919091520160405180910390a36112f58160405180604001604052806005815260200164424c4f434b60d81b815250336001806040516020016116e0911515815260200190565b5f61237a613429565b805490915060ff600160401b82041615906001600160401b03165f811580156123a05750825b90505f826001600160401b031660011480156123bb5750303b155b9050811580156123c9575080155b156123e75760405163f92ee8a960e01b815260040160405180910390fd5b845467ffffffffffffffff19166001178555831561241157845460ff60401b1916600160401b1785555b61241b8c8c613451565b6124248c613463565b61242c61348e565b61243461348e565b61243c613496565b612444613496565b61244e88886134a6565b61245661348e565b61245e613496565b612466613496565b6124705f87612d32565b5061249b7f189ab7a9244df0848122154315af71fe140f3db0fe014031783b0946b8c9d2e387612d32565b506124b35f516020614c3d5f395f51905f5287612d32565b506124cb5f516020614bbd5f395f51905f5287612d32565b505f8a1180156124e357506001600160a01b03891615155b156124f2576124f2898b613068565b831561253857845460ff60401b19168555604051600181527fc7f505b2f371ae2175ee4913f4499e1f2633a7b5936321eed1cdaeb6115181d29060200160405180910390a15b505050505050505050505050565b5f516020614c3d5f395f51905f5261255d81612b97565b5f612566612c0e565b6001600160a01b039093165f9081526002909301602052505060409020805460ff19166001179055565b5f5f5f5f5f5f306001600160a01b03166318160ddd6040518163ffffffff1660e01b8152600401602060405180830381865afa1580156125d2573d5f5f3e3d5ffd5b505050506040513d601f19601f820116820180604052508101906125f69190614a23565b9450306001600160a01b0316635c975abb6040518163ffffffff1660e01b8152600401602060405180830381865afa158015612634573d5f5f3e3d5ffd5b505050506040513d601f19601f8201168201806040525081019061265891906148f3565b9250306001600160a01b031663ddca3f436040518163ffffffff1660e01b8152600401602060405180830381865afa158015612696573d5f5f3e3d5ffd5b505050506040513d601f19601f820116820180604052508101906126ba9190614a23565b9150306001600160a01b031663c415b95c6040518163ffffffff1660e01b8152600401602060405180830381865afa1580156126f8573d5f5f3e3d5ffd5b505050506040513d601f19601f8201168201806040525081019061271c9190614a3a565b90506001935060019550909192939495565b5f61273a853385612c3b565b612745858585612f93565b6112a985858585612f9e565b5f5f61275b612c0e565b600101546001600160a01b031692915050565b5f61277a33858561353d565b6110cd33858585613548565b834211156127aa5760405163313c898160e11b815260048101859052602401611c8a565b5f7f6e71edae12b1b97f4d1f60370fef10105fa2faae0126114a169c64845d6126c98888886128148c6001600160a01b03165f9081527f5ab42ced628888259c08ac98db1eb0cf702fc1501344311d8b100cd1bfe4bb006020526040902080546001810190915590565b6040805160208101969096526001600160a01b0394851690860152929091166060840152608083015260a082015260c0810186905260e0016040516020818303038152906040528051906020012090505f61286e82613271565b90505f61287d8287878761329d565b9050896001600160a01b0316816001600160a01b0316146128c4576040516325c0072360e11b81526001600160a01b0380831660048301528b166024820152604401611c8a565b6128cf8a8a8a612c01565b50505050505050505050565b6128e4826112b4565b6128ed81612b97565b6113f98383612e10565b5f61133884848460405180602001604052805f81525061272e565b6001600160a01b039182165f9081527f52c63247e1f47db19d5ce0460030c497f067ca4cebf71ba98eeadabe20bace016020908152604080832093909416825291909152205490565b5f5f612965612c0e565b5492915050565b60025f612977613429565b8054909150600160401b900460ff168061299e575080546001600160401b03808416911610155b156129bc5760405163f92ee8a960e01b815260040160405180910390fd5b805468ffffffffffffffffff19166001600160401b03831617600160401b1781555f84905560016129ed8482614969565b50805460ff60401b191681556040516001600160401b03831681527fc7f505b2f371ae2175ee4913f4499e1f2633a7b5936321eed1cdaeb6115181d29060200160405180910390a150505050565b612a4c898989898989898989613610565b5f612a556132c9565b6001600160a01b038b165f818152602083815260408083208a8452909152808220805460ff191660011790555192935087927f98de503528ee59b575ef0c0a2576a82497bfc029a5685b209e9ec333479b10a59190a36128cf8a8a8a612f93565b5f5f612ac183611268565b1192915050565b5f5f612ad26132c9565b6001600160a01b0385165f90815260209182526040808220868352909252205460ff1691505092915050565b6001600160a01b0388163314612a3b57604051638baa579f60e01b815260040160405180910390fd5b5f516020614bfd5f395f51905f52612b3e81612b97565b6116f482613774565b5f5f612b51612dda565b6001600160a01b039093165f9081526020939093525050604090205460ff1690565b5f6001600160e01b0319821663b0202a1160e01b1480610f8d5750610f8d826137df565b612ba18133613813565b50565b5f80612bd160017f40f385e4879a1fa5e3cc698493efcfb2013bd3fda9ef97a21d5c98ecd5da12f16148be565b604051602001612be391815260200190565b60408051601f19818403018152919052805160209091012092915050565b6112f5838383600161384c565b5f80612bd160017f32dc6a76abef00e5671bbe7b33825d6b9ed59ce03aa73e058421471d39036e776148be565b5f612c468484612912565b905081811015612c8257604051637dc7a0d960e11b81526001600160a01b03841660048201526024810182905260448101839052606401611c8a565b6113f98484612c9185856148be565b612c01565b6001600160a01b038316612cbf57604051634b637e8f60e11b81525f6004820152602401611c8a565b6001600160a01b038216612ce85760405163ec442f0560e01b81525f6004820152602401611c8a565b6112f5838383613920565b5f516020614bfd5f395f51905f52612d0a81612b97565b5f612d13612ba4565b6001600160a01b039094165f9081526020949094525050604090912055565b5f5f516020614c9d5f395f51905f52612d4b8484611f6d565b612dca575f848152602082815260408083206001600160a01b03871684529091529020805460ff19166001179055612d803390565b6001600160a01b0316836001600160a01b0316857f2f8788117e7eff1d82e926ec794901d17c78024a50270940304540a733656f0d60405160405180910390a46001915050610f8d565b5f915050610f8d565b5092915050565b5f80612bd160017fcf0619c5b42052243c46bb4e123bbca492a8a3624401dec336022e7b053779cb6148be565b5f611491613adf565b5f5f516020614c9d5f395f51905f52612e298484611f6d565b15612dca575f848152602082815260408083206001600160a01b0387168085529252808320805460ff1916905551339287917ff6391f5c32d9c69d2a47ea670b442974b53935d1edc7fd64eb21e047a839171b9190a46001915050610f8d565b5f5f612e958585613b52565b90506001600160a01b038416817f6a71e99dd3659c5ddc3a4f53072ecdb7197ddc65e5277f325352b0b8e4e5b4d7874287604051612ed593929190614a55565b60405180910390a3949350505050565b612eed613b88565b5f516020614cbd5f395f51905f52805460ff191681557f5db9ee0a495bf2e6ff9c91a7834c1ba4fdd244a5e8aa4e537bd38aeae4b073aa335b6040516001600160a01b03909116815260200160405180910390a150565b6001600160a01b038316857f9657612c8ed3b8841e53aa624b2e23657021e36a86916d4958a88315f7a2924486428686604051612f849493929190614a89565b60405180910390a35050505050565b6112f5838383613bb7565b6001600160a01b0383163b156113f957604051632229f29760e21b81526001600160a01b038416906388a7ca5c90612fe0903390889087908790600401614ac6565b6020604051808303815f875af192505050801561301a575060408051601f3d908101601f1916820190925261301791810190614af8565b60015b61303757604051631daea43560e21b815260040160405180910390fd5b6001600160e01b03198116632229f29760e21b14611f6657604051631daea43560e21b815260040160405180910390fd5b6001600160a01b0382166130915760405163ec442f0560e01b81525f6004820152602401611c8a565b6116f45f8383613920565b306001600160a01b037f000000000000000000000000000000000000000000000000000000000000000016148061312257507f00000000000000000000000000000000000000000000000000000000000000006001600160a01b03166131165f516020614c7d5f395f51905f52546001600160a01b031690565b6001600160a01b031614155b156131405760405163703e46dd60e11b815260040160405180910390fd5b565b7f189ab7a9244df0848122154315af71fe140f3db0fe014031783b0946b8c9d2e36116f481612b97565b816001600160a01b03166352d1902d6040518163ffffffff1660e01b8152600401602060405180830381865afa9250505080156131c6575060408051601f3d908101601f191682019092526131c391810190614a23565b60015b6131ee57604051634c9c8ce360e01b81526001600160a01b0383166004820152602401611c8a565b5f516020614c7d5f395f51905f52811461321e57604051632a87526960e21b815260048101829052602401611c8a565b6112f58383613cf0565b306001600160a01b037f000000000000000000000000000000000000000000000000000000000000000016146131405760405163703e46dd60e11b815260040160405180910390fd5b5f610f8d61327d612e07565b8360405161190160f01b8152600281019290925260228201526042902090565b5f5f5f5f6132ad88888888613d45565b9250925092506132bd8282613e0d565b50909695505050505050565b5f80612bd160017fd2d7d79862149a046ea0a7357c83ade44e41ff4ff1a47bebf6e499f455576b076148be565b5f805f516020614bdd5f395f51905f52611272565b5f807f5ab42ced628888259c08ac98db1eb0cf702fc1501344311d8b100cd1bfe4bb00611272565b61333b613ec5565b5f516020614cbd5f395f51905f52805460ff191660011781557f62e78cea01bee320cd4e420270b5ea74000d11b0c9f74754ebdbfc544b05a25833612f26565b7fa16a46d94261c7517cc8ff89f61c0ce93598e3c849801011dee649a6a557d10280546060917fa16a46d94261c7517cc8ff89f61c0ce93598e3c849801011dee649a6a557d10091610fb690614872565b60605f7fa16a46d94261c7517cc8ff89f61c0ce93598e3c849801011dee649a6a557d100610fa5565b6001600160a01b03821661341e57604051634b637e8f60e11b81525f6004820152602401611c8a565b6116f4825f83613920565b5f807ff0c57e16840df040f15088dc2f81fe391c3923bec73e23a9662efc9c229c6a00610f8d565b613459613ef5565b6116f48282613f1a565b61346b613ef5565b612ba181604051806040016040528060018152602001603160f81b815250613f6a565b613140613ef5565b61349e613ef5565b61314061348e565b6134ae613ef5565b6134b661348e565b5f6134bf612c0e565b90506103e78311156134ef5760405163037664ab60e21b8152600481018490526103e76024820152604401611c8a565b6001600160a01b0382166135165760405163bb0bac9960e01b815260040160405180910390fd5b918255600190910180546001600160a01b0319166001600160a01b03909216919091179055565b6112f5838383612c01565b6001600160a01b0383163b156113f9576040516307b04a2d60e41b81526001600160a01b03841690637b04a2d09061358890879086908690600401614b13565b6020604051808303815f875af19250505080156135c2575060408051601f3d908101601f191682019092526135bf91810190614af8565b60015b6135df57604051632646684160e11b815260040160405180910390fd5b6001600160e01b031981166307b04a2d60e41b14611f6657604051632646684160e11b815260040160405180910390fd5b604080517f7c7c6cdb67a18743f49ec6fa9b35f50d52ed05cbed4cc592e13b44501c1a22676020808301919091526001600160a01b038c8116838501528b166060830152608082018a905260a0820189905260c0820188905260e08083018890528351808403909101815261010090920190925280519101205f61369382613271565b90505f6136a28287878761329d565b90508b6001600160a01b0316816001600160a01b0316146136d657604051638baa579f60e01b815260040160405180910390fd5b5f6136df6132c9565b6001600160a01b038e165f908152602082815260408083208c845290915290205490915060ff161561372457604051634a8478f960e11b815260040160405180910390fd5b8942101561374557604051636fc721b960e11b815260040160405180910390fd5b88421061376557604051630f05f5bf60e01b815260040160405180910390fd5b50505050505050505050505050565b5f516020614bfd5f395f51905f5261378b81612b97565b5f613794612ba4565b6001600160a01b0384165f818152602083905260408082205f1990555192935090917f8a5c4736a33c7b7f29a2c34ea9ff9608afc5718d56f6fd6dcbd2d3711a1a49139190a2505050565b5f6001600160e01b03198216637965db0b60e01b1480610f8d57506301ffc9a760e01b6001600160e01b0319831614610f8d565b61381d8282611f6d565b6116f45760405163e2517d3f60e01b81526001600160a01b038216600482015260248101839052604401611c8a565b5f516020614bdd5f395f51905f526001600160a01b0385166138835760405163e602df0560e01b81525f6004820152602401611c8a565b6001600160a01b0384166138ac57604051634a1406b160e11b81525f6004820152602401611c8a565b6001600160a01b038086165f90815260018301602090815260408083209388168352929052208390558115611f6657836001600160a01b0316856001600160a01b03167f8c5be1e5ebec7d5bd14f71427d1e84f3dd0314c0f7b2291e5b200ac8c7c3b92585604051612f8491815260200190565b6001600160a01b0383161580159061394057506001600160a01b03821615155b1561397b5761394e83612b47565b8061395d575061395d82612b47565b1561397b57604051636bc671fd60e01b815260040160405180910390fd5b6001600160a01b0383161580159061399b57506001600160a01b03821615155b156139d6576139a983612ab6565b806139b857506139b882612ab6565b156139d6576040516302a957f560e51b815260040160405180910390fd5b6001600160a01b038316158015906139f657506001600160a01b03821615155b15613ad4575f613a07848484613fcd565b90508015613ac9575f613a18612751565b90505f613a2583856148be565b9050816001600160a01b0316856001600160a01b0316876001600160a01b03167f803d12d052d3a42da53502ca6a18174fadf998cc86e6a823947c874b0ecc6ad1878786613a704290565b60408051948552602085019390935291830152606082015260800160405180910390a4613a9e868683614088565b856001600160a01b0316826001600160a01b031614613ac257613ac2868385614088565b50506113f9565b6113f9848484614088565b6112f5838383614088565b5f7f8b73c3c69bb8fe3d512ecc4cf759cc79239f7b179b0ffacaa9a75d522b39400f613b09614090565b613b116140a5565b60408051602081019490945283019190915260608201524660808201523060a082015260c00160405160208183030381529060405280519060200120905090565b5f82824243604051602001613b6a9493929190614b39565b60405160208183030381529060405280519060200120905092915050565b5f516020614cbd5f395f51905f525460ff1661314057604051638dfc202b60e01b815260040160405180910390fd5b5f516020614bdd5f395f51905f526001600160a01b038416613bf15781816002015f828254613be69190614912565b90915550613c619050565b6001600160a01b0384165f9081526020829052604090205482811015613c435760405163391434e360e21b81526001600160a01b03861660048201526024810182905260448101849052606401611c8a565b6001600160a01b0385165f9081526020839052604090209083900390555b6001600160a01b038316613c7f576002810180548390039055613c9d565b6001600160a01b0383165f9081526020829052604090208054830190555b826001600160a01b0316846001600160a01b03167fddf252ad1be2c89b69c2b068fc378daa952ba7f163c4a11628f55a4df523b3ef84604051613ce291815260200190565b60405180910390a350505050565b613cf9826140ae565b6040516001600160a01b038316907fbc7cd75a20ee27fd9adebab32041f755214dbc6bffa90cc0225b39da2e5c2d3b905f90a2805115613d3d576112f58282614111565b6116f46141aa565b5f80807f7fffffffffffffffffffffffffffffff5d576e7357a4501ddfe92f46681b20a0841115613d7e57505f91506003905082613e03565b604080515f808252602082018084528a905260ff891692820192909252606081018790526080810186905260019060a0016020604051602081039080840390855afa158015613dcf573d5f5f3e3d5ffd5b5050604051601f1901519150506001600160a01b038116613dfa57505f925060019150829050613e03565b92505f91508190505b9450945094915050565b5f826003811115613e2057613e20614b72565b03613e29575050565b6001826003811115613e3d57613e3d614b72565b03613e5b5760405163f645eedf60e01b815260040160405180910390fd5b6002826003811115613e6f57613e6f614b72565b03613e905760405163fce698f760e01b815260048101829052602401611c8a565b6003826003811115613ea457613ea4614b72565b036116f4576040516335e2f38360e21b815260048101829052602401611c8a565b5f516020614cbd5f395f51905f525460ff16156131405760405163d93c066560e01b815260040160405180910390fd5b613efd6141c9565b61314057604051631afcd79f60e31b815260040160405180910390fd5b613f22613ef5565b5f516020614bdd5f395f51905f527f52c63247e1f47db19d5ce0460030c497f067ca4cebf71ba98eeadabe20bace03613f5b8482614969565b50600481016113f98382614969565b613f72613ef5565b7fa16a46d94261c7517cc8ff89f61c0ce93598e3c849801011dee649a6a557d1007fa16a46d94261c7517cc8ff89f61c0ce93598e3c849801011dee649a6a557d102613fbe8482614969565b50600381016113f98382614969565b5f5f613fd7612c0e565b80549091505f03613feb575f91505061121a565b6001600160a01b038516158061400857506001600160a01b038416155b15614016575f91505061121a565b6001600160a01b0385165f90815260028201602052604090205460ff168061405757506001600160a01b0384165f90815260028201602052604090205460ff165b15614065575f91505061121a565b8054612710906140759085614b86565b61407f9190614b9d565b95945050505050565b612f93613ec5565b5f61409961337b565b80519060200120905090565b5f6140996133cc565b806001600160a01b03163b5f036140e357604051634c9c8ce360e01b81526001600160a01b0382166004820152602401611c8a565b5f516020614c7d5f395f51905f5280546001600160a01b0319166001600160a01b0392909216919091179055565b60605f61411e84846141e2565b905080801561413f57505f3d118061413f57505f846001600160a01b03163b115b156141545761414c6141f5565b915050610f8d565b801561417e57604051639996b31560e01b81526001600160a01b0385166004820152602401611c8a565b3d156141915761418c61420e565b612dd3565b60405163d6bda27560e01b815260040160405180910390fd5b34156131405760405163b398979f60e01b815260040160405180910390fd5b5f6141d2613429565b54600160401b900460ff16919050565b5f5f5f835160208501865af49392505050565b6040513d81523d5f602083013e3d602001810160405290565b6040513d5f823e3d81fd5b6001600160e01b031981168114612ba1575f5ffd5b5f6020828403121561423e575f5ffd5b813561121a81614219565b5f81518084528060208401602086015e5f602082860101526020601f19601f83011685010191505092915050565b602081525f61121a6020830184614249565b6001600160a01b0381168114612ba1575f5ffd5b5f5f604083850312156142ae575f5ffd5b82356142b981614289565b946020939093013593505050565b5f5f5f606084860312156142d9575f5ffd5b83356142e481614289565b925060208401356142f481614289565b929592945050506040919091013590565b5f60208284031215614315575f5ffd5b813561121a81614289565b634e487b7160e01b5f52604160045260245ffd5b5f82601f830112614343575f5ffd5b8135602083015f5f6001600160401b0384111561436257614362614320565b50604051601f19601f85018116603f011681018181106001600160401b038211171561439057614390614320565b6040528381529050808284018710156143a7575f5ffd5b838360208301375f602085830101528094505050505092915050565b5f5f5f5f608085870312156143d6575f5ffd5b84356143e181614289565b935060208501356143f181614289565b92506040850135915060608501356001600160401b03811115614412575f5ffd5b61441e87828801614334565b91505092959194509250565b5f6020828403121561443a575f5ffd5b5035919050565b5f5f60408385031215614452575f5ffd5b82359150602083013561446481614289565b809150509250929050565b5f5f5f60608486031215614481575f5ffd5b833561448c81614289565b92506020840135915060408401356001600160401b038111156144ad575f5ffd5b6144b986828701614334565b9150509250925092565b5f5f604083850312156144d4575f5ffd5b82356144df81614289565b915060208301356001600160401b038111156144f9575f5ffd5b61450585828601614334565b9150509250929050565b60e081525f61452160e083018a614249565b602083019890985250941515604086015260608501939093526001600160a01b0391909116608084015260a083015260c090910152919050565b803560ff8116811461456b575f5ffd5b919050565b5f5f5f5f5f60a08688031215614584575f5ffd5b853561458f81614289565b9450602086013593506145a46040870161455b565b94979396509394606081013594506080013592915050565b5f602082840312156145cc575f5ffd5b81356001600160401b038111156145e1575f5ffd5b61133884828501614334565b60ff60f81b8816815260e060208201525f61460b60e0830189614249565b828103604084015261461d8189614249565b606084018890526001600160a01b038716608085015260a0840186905283810360c0850152845180825260208087019350909101905f5b81811015614672578351835260209384019390920191600101614654565b50909b9a5050505050505050505050565b5f5f5f5f5f5f5f60e0888a031215614699575f5ffd5b87356001600160401b038111156146ae575f5ffd5b6146ba8a828b01614334565b97505060208801356001600160401b038111156146d5575f5ffd5b6146e18a828b01614334565b9650506040880135945060608801356146f981614289565b93506080880135925060a088013561471081614289565b915060c088013561472081614289565b8091505092959891949750929550565b5f5f5f5f5f5f5f60e0888a031215614746575f5ffd5b873561475181614289565b9650602088013561476181614289565b9550604088013594506060880135935061477d6080890161455b565b9699959850939692959460a0840135945060c09093013592915050565b5f5f604083850312156147ab575f5ffd5b82356147b681614289565b9150602083013561446481614289565b5f5f604083850312156147d7575f5ffd5b8235915060208301356001600160401b038111156144f9575f5ffd5b5f5f5f5f5f5f5f5f5f6101208a8c03121561480c575f5ffd5b893561481781614289565b985060208a013561482781614289565b975060408a0135965060608a0135955060808a0135945060a08a0135935061485160c08b0161455b565b989b979a50959894979396929550929360e081013593506101000135919050565b600181811c9082168061488657607f821691505b6020821081036148a457634e487b7160e01b5f52602260045260245ffd5b50919050565b634e487b7160e01b5f52601160045260245ffd5b81810381811115610f8d57610f8d6148aa565b5f81518060208401855e5f93019283525090919050565b5f61121a82846148d1565b5f60208284031215614903575f5ffd5b8151801515811461121a575f5ffd5b80820180821115610f8d57610f8d6148aa565b601f8211156112f557805f5260205f20601f840160051c8101602085101561494a5750805b601f840160051c820191505b81811015611f66575f8155600101614956565b81516001600160401b0381111561498257614982614320565b614996816149908454614872565b84614925565b6020601f8211600181146149c8575f83156149b15750848201515b5f19600385901b1c1916600184901b178455611f66565b5f84815260208120601f198516915b828110156149f757878501518255602094850194600190920191016149d7565b5084821015614a1457868401515f19600387901b60f8161c191681555b50505050600190811b01905550565b5f60208284031215614a33575f5ffd5b5051919050565b5f60208284031215614a4a575f5ffd5b815161121a81614289565b606081525f614a676060830186614249565b8460208401528281036040840152614a7f8185614249565b9695505050505050565b608081525f614a9b6080830187614249565b85602084015284151560408401528281036060840152614abb8185614249565b979650505050505050565b6001600160a01b03858116825284166020820152604081018390526080606082018190525f90614a7f90830184614249565b5f60208284031215614b08575f5ffd5b815161121a81614219565b60018060a01b0384168152826020820152606060408201525f61407f6060830184614249565b5f614b4482876148d1565b60609590951b6bffffffffffffffffffffffff19168552505060148301919091526034820152605401919050565b634e487b7160e01b5f52602160045260245ffd5b8082028115828204841417610f8d57610f8d6148aa565b5f82614bb757634e487b7160e01b5f52601260045260245ffd5b50049056feb3e25b5404b87e5a838579cb5d7481d61ad96ee284d38ec1e97c07ba64e7f6fc52c63247e1f47db19d5ce0460030c497f067ca4cebf71ba98eeadabe20bace0092de27771f92d6942691d73358b3a4673e4880de8356f8f2cf452be87e02d36352c63247e1f47db19d5ce0460030c497f067ca4cebf71ba98eeadabe20bace02349eec46d2c564a125684d1934a6120a70cc341d3a26d362e358a775e07dec178f2e0057cd5e35397007bcc8f5418f73dd64cc6e4073a0276563f247c3079037360894a13ba1a3210667c828492db98dca3e2076cc3735a920a3ca505d382bbc02dd7bc7dec4dceedda775e58dd541e08a116c6c53815c0bd028192f7b626800cd5ed15c6e187e77e9aee88184c21f4f2182ab5827cb3b7e07fbedcd63f03300a2646970667358221220a81ff47f682214c63761202d9258125a72f5db5b4e886025f1247b11be3ce58564736f6c634300081c0033",
  "linkReferences": {},
  "deployedLinkReferences": {}
}