{
  "_format": "hh-sol-artifact-1",
  "contractName": "Token",
  "sourceName": "contracts/Token.sol",
  "abi": [
    {
      "inputs": [],
      "stateMutability": "nonpayable",
      "type": "constructor"
    },
    {
      "inputs": [],
      "name": "AccessControlBadConfirmation",
      "type": "error"
    },
    {
      "inputs": [
        {
          "internalType": "address",
          "name": "account",
          "type": "address"
        },
        {
          "internalType": "bytes32",
          "name": "neededRole",
          "type": "bytes32"
        }
      ],
      "name": "AccessControlUnauthorizedAccount",
      "type": "error"
    },
    {
      "inputs": [],
      "name": "AccountBlocked",
      "type": "error"
    },
    {
      "inputs": [],
      "name": "AccountFrozen",
      "type": "error"
    },
    {
      "inputs": [],
      "name": "AddressBlocked",
      "type": "error"
    },
    {
      "inputs": [
        {
          "internalType": "address",
          "name": "target",
          "type": "address"
        }
      ],
      "name": "AddressEmptyCode",
      "type": "error"
    },
    {
      "inputs": [],
      "name": "AuthorizationAlreadyUsed",
      "type": "error"
    },
    {
      "inputs": [],
      "name": "AuthorizationExpired",
      "type": "error"
    },
    {
      "inputs": [],
      "name": "AuthorizationNotYetValid",
      "type": "error"
    },
    {
      "inputs": [],
      "name": "ECDSAInvalidSignature",
      "type": "error"
    },
    {
      "inputs": [
        {
          "internalType": "uint256",
          "name": "length",
          "type": "uint256"
        }
      ],
      "name": "ECDSAInvalidSignatureLength",
      "type": "error"
    },
    {
      "inputs": [
        {
          "internalType": "bytes32",
          "name": "s",
          "type": "bytes32"
        }
      ],
      "name": "ECDSAInvalidSignatureS",
      "type": "error"
    },
    {
      "inputs": [],
      "name": "ERC1363ApprovalFailed",
      "type": "error"
    },
    {
      "inputs": [],
      "name": "ERC1363TransferFailed",
      "type": "error"
    },
    {
      "inputs": [
        {
          "internalType": "address",
          "name": "implementation",
          "type": "address"
        }
      ],
      "name": "ERC1967InvalidImplementation",
      "type": "error"
    },
    {
      "inputs": [],
      "name": "ERC1967NonPayable",
      "type": "error"
    },
    {
      "inputs": [
        {
          "internalType": "address",
          "name": "spender",
          "type": "address"
        },
        {
          "internalType": "uint256",
          "name": "allowance",
          "type": "uint256"
        },
        {
          "internalType": "uint256",
          "name": "needed",
          "type": "uint256"
        }
      ],
      "name": "ERC20InsufficientAllowance",
      "type": "error"
    },
    {
      "inputs": [
        {
          "internalType": "address",
          "name": "sender",
          "type": "address"
        },
        {
          "internalType": "uint256",
          "name": "balance",
          "type": "uint256"
        },
        {
          "internalType": "uint256",
          "name": "needed",
          "type": "uint256"
        }
      ],
      "name": "ERC20InsufficientBalance",
      "type": "error"
    },
    {
      "inputs": [
        {
          "internalType": "address",
          "name": "approver",
          "type": "address"
        }
      ],
      "name": "ERC20InvalidApprover",
      "type": "error"
    },
    {
      "inputs": [
        {
          "internalType": "address",
          "name": "receiver",
          "type": "address"
        }
      ],
      "name": "ERC20InvalidReceiver",
      "type": "error"
    },
    {
      "inputs": [
        {
          "internalType": "address",
          "name": "sender",
          "type": "address"
        }
      ],
      "name": "ERC20InvalidSender",
      "type": "error"
    },
    {
      "inputs": [
        {
          "internalType": "address",
          "name": "spender",
          "type": "address"
        }
      ],
      "name": "ERC20InvalidSpender",
      "type": "error"
    },
    {
      "inputs": [
        {
          "internalType": "uint256",
          "name": "deadline",
          "type": "uint256"
        }
      ],
      "name": "ERC2612ExpiredSignature",
      "type": "error"
    },
    {
      "inputs": [
        {
          "internalType": "address",
          "name": "signer",
          "type": "address"
        },
        {
          "internalType": "address",
          "name": "owner",
          "type": "address"
        }
      ],
      "name": "ERC2612InvalidSigner",
      "type": "error"
    },
    {
      "inputs": [],
      "name": "EnforcedPause",
      "type": "error"
    },
    {
      "inputs": [],
      "name": "ExpectedPause",
      "type": "error"
    },
    {
      "inputs": [],
      "name": "FailedCall",
      "type": "error"
    },
    {
      "inputs": [
        {
          "internalType": "uint256",
          "name": "fee",
          "type": "uint256"
        },
        {
          "internalType": "uint256",
          "name": "maxFee",
          "type": "uint256"
        }
      ],
      "name": "FeeExceedsMaximum",
      "type": "error"
    },
    {
      "inputs": [
        {
          "internalType": "uint256",
          "name": "requested",
          "type": "uint256"
        },
        {
          "internalType": "uint256",
          "name": "available",
          "type": "uint256"
        }
      ],
      "name": "InsufficientUnfrozenBalance",
      "type": "error"
    },
    {
      "inputs": [
        {
          "internalType": "address",
          "name": "account",
          "type": "address"
        },
        {
          "internalType": "uint256",
          "name": "currentNonce",
          "type": "uint256"
        }
      ],
      "name": "InvalidAccountNonce",
      "type": "error"
    },
    {
      "inputs": [],
      "name": "InvalidFeeCollector",
      "type": "error"
    },
    {
      "inputs": [],
      "name": "InvalidFreezeAmount",
      "type": "error"
    },
    {
      "inputs": [],
      "name": "InvalidInitialization",
      "type": "error"
    },
    {
      "inputs": [],
      "name": "InvalidNonce",
      "type": "error"
    },
    {
      "inputs": [],
      "name": "InvalidRecipient",
      "type": "error"
    },
    {
      "inputs": [],
      "name": "InvalidSignature",
      "type": "error"
    },
    {
      "inputs": [],
      "name": "NotInitializing",
      "type": "error"
    },
    {
      "inputs": [],
      "name": "TransferFailed",
      "type": "error"
    },
    {
      "inputs": [],
      "name": "UUPSUnauthorizedCallContext",
      "type": "error"
    },
    {
      "inputs": [
        {
          "internalType": "bytes32",
          "name": "slot",
          "type": "bytes32"
        }
      ],
      "name": "UUPSUnsupportedProxiableUUID",
      "type": "error"
    },
    {
      "anonymous": false,
      "inputs": [
        {
          "indexed": true,
          "internalType": "address",
          "name": "owner",
          "type": "address"
        },
        {
          "indexed": true,
          "internalType": "address",
          "name": "spender",
          "type": "address"
        },
        {
          "indexed": false,
          "internalType": "uint256",
          "name": "value",
          "type": "uint256"
        }
      ],
      "name": "Approval",
      "type": "event"
    },
    {
      "anonymous": false,
      "inputs": [
        {
          "indexed": true,
          "internalType": "address",
          "name": "authorizer",
          "type": "address"
        },
        {
          "indexed": true,
          "internalType": "bytes32",
          "name": "nonce",
          "type": "bytes32"
        }
      ],
      "name": "AuthorizationUsed",
      "type": "event"
    },
    {
      "anonymous": false,
      "inputs": [
        {
          "indexed": true,
          "internalType": "address",
          "name": "account",
          "type": "address"
        },
        {
          "indexed": false,
          "internalType": "bool",
          "name": "blocked",
          "type": "bool"
        },
        {
          "indexed": true,
          "internalType": "address",
          "name": "executor",
          "type": "address"
        },
        {
          "indexed": false,
          "internalType": "uint256",
          "name": "timestamp",
          "type": "uint256"
        }
      ],
      "name": "BlockOperationDebug",
      "type": "event"
    },
    {
      "anonymous": false,
      "inputs": [
        {
          "indexed": true,
          "internalType": "address",
          "name": "account",
          "type": "address"
        }
      ],
      "name": "Blocked",
      "type": "event"
    },
    {
      "anonymous": false,
      "inputs": [
        {
          "indexed": true,
          "internalType": "address",
          "name": "from",
          "type": "address"
        },
        {
          "indexed": false,
          "internalType": "uint256",
          "name": "amount",
          "type": "uint256"
        },
        {
          "indexed": true,
          "internalType": "address",
          "name": "executor",
          "type": "address"
        },
        {
          "indexed": false,
          "internalType": "uint256",
          "name": "totalSupplyBefore",
          "type": "uint256"
        },
        {
          "indexed": false,
          "internalType": "uint256",
          "name": "totalSupplyAfter",
          "type": "uint256"
        },
        {
          "indexed": false,
          "internalType": "uint256",
          "name": "balanceBefore",
          "type": "uint256"
        },
        {
          "indexed": false,
          "internalType": "uint256",
          "name": "balanceAfter",
          "type": "uint256"
        },
        {
          "indexed": false,
          "internalType": "uint256",
          "name": "timestamp",
          "type": "uint256"
        }
      ],
      "name": "BurnOperationDebug",
      "type": "event"
    },
    {
      "anonymous": false,
      "inputs": [],
      "name": "EIP712DomainChanged",
      "type": "event"
    },
    {
      "anonymous": false,
      "inputs": [
        {
          "indexed": true,
          "internalType": "bytes32",
          "name": "errorId",
          "type": "bytes32"
        },
        {
          "indexed": false,
          "internalType": "string",
          "name": "errorType",
          "type": "string"
        },
        {
          "indexed": true,
          "internalType": "address",
          "name": "executor",
          "type": "address"
        },
        {
          "indexed": false,
          "internalType": "string",
          "name": "message",
          "type": "string"
        },
        {
          "indexed": false,
          "internalType": "bytes",
          "name": "data",
          "type": "bytes"
        },
        {
          "indexed": false,
          "internalType": "uint256",
          "name": "timestamp",
          "type": "uint256"
        }
      ],
      "name": "ErrorReport",
      "type": "event"
    },
    {
      "anonymous": false,
      "inputs": [
        {
          "indexed": true,
          "internalType": "address",
          "name": "from",
          "type": "address"
        },
        {
          "indexed": true,
          "internalType": "address",
          "name": "to",
          "type": "address"
        },
        {
          "indexed": false,
          "internalType": "uint256",
          "name": "amount",
          "type": "uint256"
        },
        {
          "indexed": false,
          "internalType": "uint256",
          "name": "feeAmount",
          "type": "uint256"
        },
        {
          "indexed": true,
          "internalType": "address",
          "name": "collector",
          "type": "address"
        },
        {
          "indexed": false,
          "internalType": "uint256",
          "name": "netValue",
          "type": "uint256"
        },
        {
          "indexed": false,
          "internalType": "uint256",
          "name": "timestamp",
          "type": "uint256"
        }
      ],
      "name": "FeeOperationDebug",
      "type": "event"
    },
    {
      "anonymous": false,
      "inputs": [
        {
          "indexed": true,
          "internalType": "address",
          "name": "account",
          "type": "address"
        },
        {
          "indexed": false,
          "internalType": "uint256",
          "name": "amount",
          "type": "uint256"
        },
        {
          "indexed": true,
          "internalType": "address",
          "name": "executor",
          "type": "address"
        },
        {
          "indexed": false,
          "internalType": "uint256",
          "name": "frozenBefore",
          "type": "uint256"
        },
        {
          "indexed": false,
          "internalType": "uint256",
          "name": "frozenAfter",
          "type": "uint256"
        },
        {
          "indexed": false,
          "internalType": "uint256",
          "name": "timestamp",
          "type": "uint256"
        }
      ],
      "name": "FreezeOperationDebug",
      "type": "event"
    },
    {
      "anonymous": false,
      "inputs": [
        {
          "indexed": true,
          "internalType": "address",
          "name": "account",
          "type": "address"
        }
      ],
      "name": "Frozen",
      "type": "event"
    },
    {
      "anonymous": false,
      "inputs": [
        {
          "indexed": false,
          "internalType": "uint256",
          "name": "timestamp",
          "type": "uint256"
        },
        {
          "indexed": false,
          "internalType": "uint256",
          "name": "totalSupply",
          "type": "uint256"
        },
        {
          "indexed": false,
          "internalType": "uint256",
          "name": "activeUsers",
          "type": "uint256"
        },
        {
          "indexed": false,
          "internalType": "uint256",
          "name": "totalTransactions",
          "type": "uint256"
        },
        {
          "indexed": true,
          "internalType": "address",
          "name": "checker",
          "type": "address"
        }
      ],
      "name": "HealthCheck",
      "type": "event"
    },
    {
      "anonymous": false,
      "inputs": [
        {
          "indexed": false,
          "internalType": "uint64",
          "name": "version",
          "type": "uint64"
        }
      ],
      "name": "Initialized",
      "type": "event"
    },
    {
      "anonymous": false,
      "inputs": [
        {
          "indexed": true,
          "internalType": "address",
          "name": "to",
          "type": "address"
        },
        {
          "indexed": false,
          "internalType": "uint256",
          "name": "amount",
          "type": "uint256"
        },
        {
          "indexed": true,
          "internalType": "address",
          "name": "executor",
          "type": "address"
        },
        {
          "indexed": false,
          "internalType": "uint256",
          "name": "totalSupplyBefore",
          "type": "uint256"
        },
        {
          "indexed": false,
          "internalType": "uint256",
          "name": "totalSupplyAfter",
          "type": "uint256"
        },
        {
          "indexed": false,
          "internalType": "uint256",
          "name": "timestamp",
          "type": "uint256"
        }
      ],
      "name": "MintOperationDebug",
      "type": "event"
    },
    {
      "anonymous": false,
      "inputs": [
        {
          "indexed": true,
          "internalType": "bytes32",
          "name": "operationId",
          "type": "bytes32"
        },
        {
          "indexed": false,
          "internalType": "string",
          "name": "operationType",
          "type": "string"
        },
        {
          "indexed": true,
          "internalType": "address",
          "name": "executor",
          "type": "address"
        },
        {
          "indexed": false,
          "internalType": "uint256",
          "name": "timestamp",
          "type": "uint256"
        },
        {
          "indexed": false,
          "internalType": "bool",
          "name": "success",
          "type": "bool"
        },
        {
          "indexed": false,
          "internalType": "bytes",
          "name": "result",
          "type": "bytes"
        }
      ],
      "name": "OperationCompleted",
      "type": "event"
    },
    {
      "anonymous": false,
      "inputs": [
        {
          "indexed": true,
          "internalType": "bytes32",
          "name": "operationId",
          "type": "bytes32"
        },
        {
          "indexed": false,
          "internalType": "string",
          "name": "operationType",
          "type": "string"
        },
        {
          "indexed": true,
          "internalType": "address",
          "name": "executor",
          "type": "address"
        },
        {
          "indexed": false,
          "internalType": "uint256",
          "name": "timestamp",
          "type": "uint256"
        },
        {
          "indexed": false,
          "internalType": "bytes",
          "name": "data",
          "type": "bytes"
        }
      ],
      "name": "OperationStarted",
      "type": "event"
    },
    {
      "anonymous": false,
      "inputs": [
        {
          "indexed": false,
          "internalType": "bool",
          "name": "paused",
          "type": "bool"
        },
        {
          "indexed": true,
          "internalType": "address",
          "name": "executor",
          "type": "address"
        },
        {
          "indexed": false,
          "internalType": "uint256",
          "name": "timestamp",
          "type": "uint256"
        }
      ],
      "name": "PauseOperationDebug",
      "type": "event"
    },
    {
      "anonymous": false,
      "inputs": [
        {
          "indexed": false,
          "internalType": "address",
          "name": "account",
          "type": "address"
        }
      ],
      "name": "Paused",
      "type": "event"
    },
    {
      "anonymous": false,
      "inputs": [
        {
          "indexed": true,
          "internalType": "bytes32",
          "name": "role",
          "type": "bytes32"
        },
        {
          "indexed": true,
          "internalType": "bytes32",
          "name": "previousAdminRole",
          "type": "bytes32"
        },
        {
          "indexed": true,
          "internalType": "bytes32",
          "name": "newAdminRole",
          "type": "bytes32"
        }
      ],
      "name": "RoleAdminChanged",
      "type": "event"
    },
    {
      "anonymous": false,
      "inputs": [
        {
          "indexed": true,
          "internalType": "bytes32",
          "name": "role",
          "type": "bytes32"
        },
        {
          "indexed": true,
          "internalType": "address",
          "name": "account",
          "type": "address"
        },
        {
          "indexed": true,
          "internalType": "address",
          "name": "sender",
          "type": "address"
        }
      ],
      "name": "RoleGranted",
      "type": "event"
    },
    {
      "anonymous": false,
      "inputs": [
        {
          "indexed": true,
          "internalType": "bytes32",
          "name": "role",
          "type": "bytes32"
        },
        {
          "indexed": true,
          "internalType": "address",
          "name": "account",
          "type": "address"
        },
        {
          "indexed": false,
          "internalType": "bool",
          "name": "granted",
          "type": "bool"
        },
        {
          "indexed": true,
          "internalType": "address",
          "name": "executor",
          "type": "address"
        },
        {
          "indexed": false,
          "internalType": "uint256",
          "name": "timestamp",
          "type": "uint256"
        }
      ],
      "name": "RoleOperationDebug",
      "type": "event"
    },
    {
      "anonymous": false,
      "inputs": [
        {
          "indexed": true,
          "internalType": "bytes32",
          "name": "role",
          "type": "bytes32"
        },
        {
          "indexed": true,
          "internalType": "address",
          "name": "account",
          "type": "address"
        },
        {
          "indexed": true,
          "internalType": "address",
          "name": "sender",
          "type": "address"
        }
      ],
      "name": "RoleRevoked",
      "type": "event"
    },
    {
      "anonymous": false,
      "inputs": [
        {
          "indexed": true,
          "internalType": "address",
          "name": "from",
          "type": "address"
        },
        {
          "indexed": true,
          "internalType": "address",
          "name": "to",
          "type": "address"
        },
        {
          "indexed": false,
          "internalType": "uint256",
          "name": "value",
          "type": "uint256"
        }
      ],
      "name": "Transfer",
      "type": "event"
    },
    {
      "anonymous": false,
      "inputs": [
        {
          "indexed": true,
          "internalType": "address",
          "name": "account",
          "type": "address"
        }
      ],
      "name": "Unblocked",
      "type": "event"
    },
    {
      "anonymous": false,
      "inputs": [
        {
          "indexed": true,
          "internalType": "address",
          "name": "account",
          "type": "address"
        }
      ],
      "name": "Unfrozen",
      "type": "event"
    },
    {
      "anonymous": false,
      "inputs": [
        {
          "indexed": false,
          "internalType": "address",
          "name": "account",
          "type": "address"
        }
      ],
      "name": "Unpaused",
      "type": "event"
    },
    {
      "anonymous": false,
      "inputs": [
        {
          "indexed": true,
          "internalType": "address",
          "name": "implementation",
          "type": "address"
        }
      ],
      "name": "Upgraded",
      "type": "event"
    },
    {
      "inputs": [],
      "name": "BLOCKER_ROLE",
      "outputs": [
        {
          "internalType": "bytes32",
          "name": "",
          "type": "bytes32"
        }
      ],
      "stateMutability": "view",
      "type": "function"
    },
    {
      "inputs": [],
      "name": "BURNER_ROLE",
      "outputs": [
        {
          "internalType": "bytes32",
          "name": "",
          "type": "bytes32"
        }
      ],
      "stateMutability": "view",
      "type": "function"
    },
    {
      "inputs": [],
      "name": "DEFAULT_ADMIN_ROLE",
      "outputs": [
        {
          "internalType": "bytes32",
          "name": "",
          "type": "bytes32"
        }
      ],
      "stateMutability": "view",
      "type": "function"
    },
    {
      "inputs": [],
      "name": "DOMAIN_SEPARATOR",
      "outputs": [
        {
          "internalType": "bytes32",
          "name": "",
          "type": "bytes32"
        }
      ],
      "stateMutability": "view",
      "type": "function"
    },
    {
      "inputs": [],
      "name": "FEE_ADMIN_ROLE",
      "outputs": [
        {
          "internalType": "bytes32",
          "name": "",
          "type": "bytes32"
        }
      ],
      "stateMutability": "view",
      "type": "function"
    },
    {
      "inputs": [],
      "name": "FREEZER_ROLE",
      "outputs": [
        {
          "internalType": "bytes32",
          "name": "",
          "type": "bytes32"
        }
      ],
      "stateMutability": "view",
      "type": "function"
    },
    {
      "inputs": [],
      "name": "MAX_FEE_BASIS_POINTS",
      "outputs": [
        {
          "internalType": "uint16",
          "name": "",
          "type": "uint16"
        }
      ],
      "stateMutability": "view",
      "type": "function"
    },
    {
      "inputs": [],
      "name": "MINTER_ROLE",
      "outputs": [
        {
          "internalType": "bytes32",
          "name": "",
          "type": "bytes32"
        }
      ],
      "stateMutability": "view",
      "type": "function"
    },
    {
      "inputs": [],
      "name": "PAUSER_ROLE",
      "outputs": [
        {
          "internalType": "bytes32",
          "name": "",
          "type": "bytes32"
        }
      ],
      "stateMutability": "view",
      "type": "function"
    },
    {
      "inputs": [],
      "name": "RECOVERER_ROLE",
      "outputs": [
        {
          "internalType": "bytes32",
          "name": "",
          "type": "bytes32"
        }
      ],
      "stateMutability": "view",
      "type": "function"
    },
    {
      "inputs": [],
      "name": "UPGRADER_ROLE",
      "outputs": [
        {
          "internalType": "bytes32",
          "name": "",
          "type": "bytes32"
        }
      ],
      "stateMutability": "view",
      "type": "function"
    },
    {
      "inputs": [],
      "name": "UPGRADE_INTERFACE_VERSION",
      "outputs": [
        {
          "internalType": "string",
          "name": "",
          "type": "string"
        }
      ],
      "stateMutability": "view",
      "type": "function"
    },
    {
      "inputs": [
        {
          "internalType": "address",
          "name": "account",
          "type": "address"
        }
      ],
      "name": "addFeeFree",
      "outputs": [],
      "stateMutability": "nonpayable",
      "type": "function"
    },
    {
      "inputs": [
        {
          "internalType": "address",
          "name": "owner",
          "type": "address"
        },
        {
          "internalType": "address",
          "name": "spender",
          "type": "address"
        }
      ],
      "name": "allowance",
      "outputs": [
        {
          "internalType": "uint256",
          "name": "",
          "type": "uint256"
        }
      ],
      "stateMutability": "view",
      "type": "function"
    },
    {
      "inputs": [
        {
          "internalType": "address",
          "name": "spender",
          "type": "address"
        },
        {
          "internalType": "uint256",
          "name": "value",
          "type": "uint256"
        }
      ],
      "name": "approve",
      "outputs": [
        {
          "internalType": "bool",
          "name": "",
          "type": "bool"
        }
      ],
      "stateMutability": "nonpayable",
      "type": "function"
    },
    {
      "inputs": [
        {
          "internalType": "address",
          "name": "spender",
          "type": "address"
        },
        {
          "internalType": "uint256",
          "name": "value",
          "type": "uint256"
        }
      ],
      "name": "approveAndCall",
      "outputs": [
        {
          "internalType": "bool",
          "name": "",
          "type": "bool"
        }
      ],
      "stateMutability": "nonpayable",
      "type": "function"
    },
    {
      "inputs": [
        {
          "internalType": "address",
          "name": "spender",
          "type": "address"
        },
        {
          "internalType": "uint256",
          "name": "value",
          "type": "uint256"
        },
        {
          "internalType": "bytes",
          "name": "data",
          "type": "bytes"
        }
      ],
      "name": "approveAndCall",
      "outputs": [
        {
          "internalType": "bool",
          "name": "",
          "type": "bool"
        }
      ],
      "stateMutability": "nonpayable",
      "type": "function"
    },
    {
      "inputs": [
        {
          "internalType": "address",
          "name": "authorizer",
          "type": "address"
        },
        {
          "internalType": "bytes32",
          "name": "nonce",
          "type": "bytes32"
        }
      ],
      "name": "authorizationState",
      "outputs": [
        {
          "internalType": "bool",
          "name": "",
          "type": "bool"
        }
      ],
      "stateMutability": "view",
      "type": "function"
    },
    {
      "inputs": [
        {
          "internalType": "address",
          "name": "account",
          "type": "address"
        }
      ],
      "name": "availableBalanceOf",
      "outputs": [
        {
          "internalType": "uint256",
          "name": "",
          "type": "uint256"
        }
      ],
      "stateMutability": "view",
      "type": "function"
    },
    {
      "inputs": [
        {
          "internalType": "address",
          "name": "account",
          "type": "address"
        }
      ],
      "name": "balanceOf",
      "outputs": [
        {
          "internalType": "uint256",
          "name": "",
          "type": "uint256"
        }
      ],
      "stateMutability": "view",
      "type": "function"
    },
    {
      "inputs": [
        {
          "internalType": "address",
          "name": "account",
          "type": "address"
        }
      ],
      "name": "blockAddress",
      "outputs": [],
      "stateMutability": "nonpayable",
      "type": "function"
    },
    {
      "inputs": [
        {
          "internalType": "address",
          "name": "account",
          "type": "address"
        }
      ],
      "name": "blockUser",
      "outputs": [],
      "stateMutability": "nonpayable",
      "type": "function"
    },
    {
      "inputs": [
        {
          "internalType": "address",
          "name": "from",
          "type": "address"
        },
        {
          "internalType": "uint256",
          "name": "amount",
          "type": "uint256"
        }
      ],
      "name": "burn",
      "outputs": [],
      "stateMutability": "nonpayable",
      "type": "function"
    },
    {
      "inputs": [
        {
          "internalType": "address",
          "name": "authorizer",
          "type": "address"
        },
        {
          "internalType": "bytes32",
          "name": "nonce",
          "type": "bytes32"
        },
        {
          "internalType": "uint8",
          "name": "v",
          "type": "uint8"
        },
        {
          "internalType": "bytes32",
          "name": "r",
          "type": "bytes32"
        },
        {
          "internalType": "bytes32",
          "name": "s",
          "type": "bytes32"
        }
      ],
      "name": "cancelAuthorization",
      "outputs": [],
      "stateMutability": "nonpayable",
      "type": "function"
    },
    {
      "inputs": [
        {
          "internalType": "address",
          "name": "account",
          "type": "address"
        }
      ],
      "name": "debugRoles",
      "outputs": [
        {
          "internalType": "bool",
          "name": "admin",
          "type": "bool"
        },
        {
          "internalType": "bool",
          "name": "minter",
          "type": "bool"
        },
        {
          "internalType": "bool",
          "name": "burner",
          "type": "bool"
        }
      ],
      "stateMutability": "view",
      "type": "function"
    },
    {
      "inputs": [],
      "name": "decimals",
      "outputs": [
        {
          "internalType": "uint8",
          "name": "",
          "type": "uint8"
        }
      ],
      "stateMutability": "view",
      "type": "function"
    },
    {
      "inputs": [],
      "name": "eip712Domain",
      "outputs": [
        {
          "internalType": "bytes1",
          "name": "fields",
          "type": "bytes1"
        },
        {
          "internalType": "string",
          "name": "name",
          "type": "string"
        },
        {
          "internalType": "string",
          "name": "version",
          "type": "string"
        },
        {
          "internalType": "uint256",
          "name": "chainId",
          "type": "uint256"
        },
        {
          "internalType": "address",
          "name": "verifyingContract",
          "type": "address"
        },
        {
          "internalType": "bytes32",
          "name": "salt",
          "type": "bytes32"
        },
        {
          "internalType": "uint256[]",
          "name": "extensions",
          "type": "uint256[]"
        }
      ],
      "stateMutability": "view",
      "type": "function"
    },
    {
      "inputs": [],
      "name": "emitHealthCheck",
      "outputs": [],
      "stateMutability": "nonpayable",
      "type": "function"
    },
    {
      "inputs": [],
      "name": "fee",
      "outputs": [
        {
          "internalType": "uint256",
          "name": "",
          "type": "uint256"
        }
      ],
      "stateMutability": "view",
      "type": "function"
    },
    {
      "inputs": [],
      "name": "feeCollector",
      "outputs": [
        {
          "internalType": "address",
          "name": "",
          "type": "address"
        }
      ],
      "stateMutability": "view",
      "type": "function"
    },
    {
      "inputs": [
        {
          "internalType": "address",
          "name": "account",
          "type": "address"
        },
        {
          "internalType": "uint256",
          "name": "amount",
          "type": "uint256"
        }
      ],
      "name": "freeze",
      "outputs": [],
      "stateMutability": "nonpayable",
      "type": "function"
    },
    {
      "inputs": [
        {
          "internalType": "address",
          "name": "account",
          "type": "address"
        }
      ],
      "name": "freeze",
      "outputs": [],
      "stateMutability": "nonpayable",
      "type": "function"
    },
    {
      "inputs": [
        {
          "internalType": "address",
          "name": "account",
          "type": "address"
        }
      ],
      "name": "freezeAll",
      "outputs": [],
      "stateMutability": "nonpayable",
      "type": "function"
    },
    {
      "inputs": [
        {
          "internalType": "address",
          "name": "account",
          "type": "address"
        }
      ],
      "name": "frozenOf",
      "outputs": [
        {
          "internalType": "uint256",
          "name": "",
          "type": "uint256"
        }
      ],
      "stateMutability": "view",
      "type": "function"
    },
    {
      "inputs": [
        {
          "internalType": "bytes32",
          "name": "role",
          "type": "bytes32"
        }
      ],
      "name": "getRoleAdmin",
      "outputs": [
        {
          "internalType": "bytes32",
          "name": "",
          "type": "bytes32"
        }
      ],
      "stateMutability": "view",
      "type": "function"
    },
    {
      "inputs": [],
      "name": "getSystemStatus",
      "outputs": [
        {
          "internalType": "string",
          "name": "contractVersion",
          "type": "string"
        },
        {
          "internalType": "uint256",
          "name": "_totalSupply",
          "type": "uint256"
        },
        {
          "internalType": "bool",
          "name": "_paused",
          "type": "bool"
        },
        {
          "internalType": "uint256",
          "name": "_fee",
          "type": "uint256"
        },
        {
          "internalType": "address",
          "name": "feeCollectorAddr",
          "type": "address"
        },
        {
          "internalType": "uint256",
          "name": "_blockNumber",
          "type": "uint256"
        },
        {
          "internalType": "uint256",
          "name": "_timestamp",
          "type": "uint256"
        }
      ],
      "stateMutability": "view",
      "type": "function"
    },
    {
      "inputs": [
        {
          "internalType": "bytes32",
          "name": "role",
          "type": "bytes32"
        },
        {
          "internalType": "address",
          "name": "account",
          "type": "address"
        }
      ],
      "name": "grantRole",
      "outputs": [],
      "stateMutability": "nonpayable",
      "type": "function"
    },
    {
      "inputs": [
        {
          "internalType": "bytes32",
          "name": "role",
          "type": "bytes32"
        },
        {
          "internalType": "address",
          "name": "account",
          "type": "address"
        }
      ],
      "name": "hasRole",
      "outputs": [
        {
          "internalType": "bool",
          "name": "",
          "type": "bool"
        }
      ],
      "stateMutability": "view",
      "type": "function"
    },
    {
      "inputs": [],
      "name": "healthCheck",
      "outputs": [
        {
          "internalType": "bool",
          "name": "success",
          "type": "bool"
        },
        {
          "internalType": "uint256",
          "name": "totalSupply",
          "type": "uint256"
        },
        {
          "internalType": "uint256",
          "name": "activeUsers",
          "type": "uint256"
        },
        {
          "internalType": "bool",
          "name": "isPaused",
          "type": "bool"
        },
        {
          "internalType": "uint256",
          "name": "currentFee",
          "type": "uint256"
        },
        {
          "internalType": "address",
          "name": "feeCollector",
          "type": "address"
        }
      ],
      "stateMutability": "view",
      "type": "function"
    },
    {
      "inputs": [
        {
          "internalType": "string",
          "name": "name_",
          "type": "string"
        },
        {
          "internalType": "string",
          "name": "symbol_",
          "type": "string"
        },
        {
          "internalType": "uint256",
          "name": "initialSupply_",
          "type": "uint256"
        },
        {
          "internalType": "address",
          "name": "initialHolder_",
          "type": "address"
        },
        {
          "internalType": "uint256",
          "name": "initialFee_",
          "type": "uint256"
        },
        {
          "internalType": "address",
          "name": "feeCollector_",
          "type": "address"
        },
        {
          "internalType": "address",
          "name": "defaultAdmin_",
          "type": "address"
        }
      ],
      "name": "initialize",
      "outputs": [],
      "stateMutability": "nonpayable",
      "type": "function"
    },
    {
      "inputs": [
        {
          "internalType": "address",
          "name": "account",
          "type": "address"
        }
      ],
      "name": "isAdmin",
      "outputs": [
        {
          "internalType": "bool",
          "name": "",
          "type": "bool"
        }
      ],
      "stateMutability": "view",
      "type": "function"
    },
    {
      "inputs": [
        {
          "internalType": "address",
          "name": "account",
          "type": "address"
        }
      ],
      "name": "isBlocked",
      "outputs": [
        {
          "internalType": "bool",
          "name": "",
          "type": "bool"
        }
      ],
      "stateMutability": "view",
      "type": "function"
    },
    {
      "inputs": [
        {
          "internalType": "address",
          "name": "account",
          "type": "address"
        }
      ],
      "name": "isFeeFree",
      "outputs": [
        {
          "internalType": "bool",
          "name": "",
          "type": "bool"
        }
      ],
      "stateMutability": "view",
      "type": "function"
    },
    {
      "inputs": [
        {
          "internalType": "address",
          "name": "account",
          "type": "address"
        }
      ],
      "name": "isFrozen",
      "outputs": [
        {
          "internalType": "bool",
          "name": "",
          "type": "bool"
        }
      ],
      "stateMutability": "view",
      "type": "function"
    },
    {
      "inputs": [
        {
          "internalType": "address",
          "name": "to",
          "type": "address"
        },
        {
          "internalType": "uint256",
          "name": "amount",
          "type": "uint256"
        }
      ],
      "name": "mint",
      "outputs": [],
      "stateMutability": "nonpayable",
      "type": "function"
    },
    {
      "inputs": [],
      "name": "name",
      "outputs": [
        {
          "internalType": "string",
          "name": "",
          "type": "string"
        }
      ],
      "stateMutability": "view",
      "type": "function"
    },
    {
      "inputs": [
        {
          "internalType": "address",
          "name": "owner",
          "type": "address"
        }
      ],
      "name": "nonces",
      "outputs": [
        {
          "internalType": "uint256",
          "name": "",
          "type": "uint256"
        }
      ],
      "stateMutability": "view",
      "type": "function"
    },
    {
      "inputs": [
        {
          "internalType": "address",
          "name": "",
          "type": "address"
        },
        {
          "internalType": "address",
          "name": "",
          "type": "address"
        },
        {
          "internalType": "uint256",
          "name": "",
          "type": "uint256"
        },
        {
          "internalType": "bytes",
          "name": "",
          "type": "bytes"
        }
      ],
      "name": "onERC721Received",
      "outputs": [
        {
          "internalType": "bytes4",
          "name": "",
          "type": "bytes4"
        }
      ],
      "stateMutability": "nonpayable",
      "type": "function"
    },
    {
      "inputs": [],
      "name": "pause",
      "outputs": [],
      "stateMutability": "nonpayable",
      "type": "function"
    },
    {
      "inputs": [],
      "name": "paused",
      "outputs": [
        {
          "internalType": "bool",
          "name": "",
          "type": "bool"
        }
      ],
      "stateMutability": "view",
      "type": "function"
    },
    {
      "inputs": [
        {
          "internalType": "address",
          "name": "owner",
          "type": "address"
        },
        {
          "internalType": "address",
          "name": "spender",
          "type": "address"
        },
        {
          "internalType": "uint256",
          "name": "value",
          "type": "uint256"
        },
        {
          "internalType": "uint256",
          "name": "deadline",
          "type": "uint256"
        },
        {
          "internalType": "uint8",
          "name": "v",
          "type": "uint8"
        },
        {
          "internalType": "bytes32",
          "name": "r",
          "type": "bytes32"
        },
        {
          "internalType": "bytes32",
          "name": "s",
          "type": "bytes32"
        }
      ],
      "name": "permit",
      "outputs": [],
      "stateMutability": "nonpayable",
      "type": "function"
    },
    {
      "inputs": [],
      "name": "proxiableUUID",
      "outputs": [
        {
          "internalType": "bytes32",
          "name": "",
          "type": "bytes32"
        }
      ],
      "stateMutability": "view",
      "type": "function"
    },
    {
      "inputs": [
        {
          "internalType": "address",
          "name": "from",
          "type": "address"
        },
        {
          "internalType": "address",
          "name": "to",
          "type": "address"
        },
        {
          "internalType": "uint256",
          "name": "value",
          "type": "uint256"
        },
        {
          "internalType": "uint256",
          "name": "validAfter",
          "type": "uint256"
        },
        {
          "internalType": "uint256",
          "name": "validBefore",
          "type": "uint256"
        },
        {
          "internalType": "bytes32",
          "name": "nonce",
          "type": "bytes32"
        },
        {
          "internalType": "uint8",
          "name": "v",
          "type": "uint8"
        },
        {
          "internalType": "bytes32",
          "name": "r",
          "type": "bytes32"
        },
        {
          "internalType": "bytes32",
          "name": "s",
          "type": "bytes32"
        }
      ],
      "name": "receiveWithAuthorization",
      "outputs": [],
      "stateMutability": "nonpayable",
      "type": "function"
    },
    {
      "inputs": [
        {
          "internalType": "address",
          "name": "token",
          "type": "address"
        },
        {
          "internalType": "address",
          "name": "to",
          "type": "address"
        },
        {
          "internalType": "uint256",
          "name": "amount",
          "type": "uint256"
        }
      ],
      "name": "recoverERC20",
      "outputs": [],
      "stateMutability": "nonpayable",
      "type": "function"
    },
    {
      "inputs": [
        {
          "internalType": "address",
          "name": "nft",
          "type": "address"
        },
        {
          "internalType": "address",
          "name": "to",
          "type": "address"
        },
        {
          "internalType": "uint256",
          "name": "tokenId",
          "type": "uint256"
        }
      ],
      "name": "recoverERC721",
      "outputs": [],
      "stateMutability": "nonpayable",
      "type": "function"
    },
    {
      "inputs": [
        {
          "internalType": "address payable",
          "name": "to",
          "type": "address"
        },
        {
          "internalType": "uint256",
          "name": "amount",
          "type": "uint256"
        }
      ],
      "name": "recoverETH",
      "outputs": [],
      "stateMutability": "nonpayable",
      "type": "function"
    },
    {
      "inputs": [
        {
          "internalType": "address",
          "name": "account",
          "type": "address"
        },
        {
          "internalType": "uint256",
          "name": "amount",
          "type": "uint256"
        }
      ],
      "name": "reduceFrozen",
      "outputs": [],
      "stateMutability": "nonpayable",
      "type": "function"
    },
    {
      "inputs": [
        {
          "internalType": "address",
          "name": "account",
          "type": "address"
        }
      ],
      "name": "removeFeeFree",
      "outputs": [],
      "stateMutability": "nonpayable",
      "type": "function"
    },
    {
      "inputs": [
        {
          "internalType": "bytes32",
          "name": "role",
          "type": "bytes32"
        },
        {
          "internalType": "address",
          "name": "callerConfirmation",
          "type": "address"
        }
      ],
      "name": "renounceRole",
      "outputs": [],
      "stateMutability": "nonpayable",
      "type": "function"
    },
    {
      "inputs": [
        {
          "internalType": "address",
          "name": "account",
          "type": "address"
        }
      ],
      "name": "resetUser",
      "outputs": [],
      "stateMutability": "nonpayable",
      "type": "function"
    },
    {
      "inputs": [
        {
          "internalType": "bytes32",
          "name": "role",
          "type": "bytes32"
        },
        {
          "internalType": "address",
          "name": "account",
          "type": "address"
        }
      ],
      "name": "revokeRole",
      "outputs": [],
      "stateMutability": "nonpayable",
      "type": "function"
    },
    {
      "inputs": [
        {
          "internalType": "uint256",
          "name": "newFee",
          "type": "uint256"
        }
      ],
      "name": "setFee",
      "outputs": [],
      "stateMutability": "nonpayable",
      "type": "function"
    },
    {
      "inputs": [
        {
          "internalType": "address",
          "name": "collector",
          "type": "address"
        }
      ],
      "name": "setFeeCollector",
      "outputs": [],
      "stateMutability": "nonpayable",
      "type": "function"
    },
    {
      "inputs": [
        {
          "internalType": "bytes4",
          "name": "interfaceId",
          "type": "bytes4"
        }
      ],
      "name": "supportsInterface",
      "outputs": [
        {
          "internalType": "bool",
          "name": "",
          "type": "bool"
        }
      ],
      "stateMutability": "view",
      "type": "function"
    },
    {
      "inputs": [],
      "name": "symbol",
      "outputs": [
        {
          "internalType": "string",
          "name": "",
          "type": "string"
        }
      ],
      "stateMutability": "view",
      "type": "function"
    },
    {
      "inputs": [],
      "name": "totalSupply",
      "outputs": [
        {
          "internalType": "uint256",
          "name": "",
          "type": "uint256"
        }
      ],
      "stateMutability": "view",
      "type": "function"
    },
    {
      "inputs": [
        {
          "internalType": "address",
          "name": "to",
          "type": "address"
        },
        {
          "internalType": "uint256",
          "name": "value",
          "type": "uint256"
        }
      ],
      "name": "transfer",
      "outputs": [
        {
          "internalType": "bool",
          "name": "",
          "type": "bool"
        }
      ],
      "stateMutability": "nonpayable",
      "type": "function"
    },
    {
      "inputs": [
        {
          "internalType": "address",
          "name": "to",
          "type": "address"
        },
        {
          "internalType": "uint256",
          "name": "value",
          "type": "uint256"
        }
      ],
      "name": "transferAndCall",
      "outputs": [
        {
          "internalType": "bool",
          "name": "",
          "type": "bool"
        }
      ],
      "stateMutability": "nonpayable",
      "type": "function"
    },
    {
      "inputs": [
        {
          "internalType": "address",
          "name": "to",
          "type": "address"
        },
        {
          "internalType": "uint256",
          "name": "value",
          "type": "uint256"
        },
        {
          "internalType": "bytes",
          "name": "data",
          "type": "bytes"
        }
      ],
      "name": "transferAndCall",
      "outputs": [
        {
          "internalType": "bool",
          "name": "",
          "type": "bool"
        }
      ],
      "stateMutability": "nonpayable",
      "type": "function"
    },
    {
      "inputs": [
        {
          "internalType": "address",
          "name": "from",
          "type": "address"
        },
        {
          "internalType": "address",
          "name": "to",
          "type": "address"
        },
        {
          "internalType": "uint256",
          "name": "value",
          "type": "uint256"
        }
      ],
      "name": "transferFrom",
      "outputs": [
        {
          "internalType": "bool",
          "name": "",
          "type": "bool"
        }
      ],
      "stateMutability": "nonpayable",
      "type": "function"
    },
    {
      "inputs": [
        {
          "internalType": "address",
          "name": "from",
          "type": "address"
        },
        {
          "internalType": "address",
          "name": "to",
          "type": "address"
        },
        {
          "internalType": "uint256",
          "name": "value",
          "type": "uint256"
        },
        {
          "internalType": "bytes",
          "name": "data",
          "type": "bytes"
        }
      ],
      "name": "transferFromAndCall",
      "outputs": [
        {
          "internalType": "bool",
          "name": "",
          "type": "bool"
        }
      ],
      "stateMutability": "nonpayable",
      "type": "function"
    },
    {
      "inputs": [
        {
          "internalType": "address",
          "name": "from",
          "type": "address"
        },
        {
          "internalType": "address",
          "name": "to",
          "type": "address"
        },
        {
          "internalType": "uint256",
          "name": "value",
          "type": "uint256"
        }
      ],
      "name": "transferFromAndCall",
      "outputs": [
        {
          "internalType": "bool",
          "name": "",
          "type": "bool"
        }
      ],
      "stateMutability": "nonpayable",
      "type": "function"
    },
    {
      "inputs": [
        {
          "internalType": "address",
          "name": "from",
          "type": "address"
        },
        {
          "internalType": "address",
          "name": "to",
          "type": "address"
        },
        {
          "internalType": "uint256",
          "name": "value",
          "type": "uint256"
        },
        {
          "internalType": "uint256",
          "name": "validAfter",
          "type": "uint256"
        },
        {
          "internalType": "uint256",
          "name": "validBefore",
          "type": "uint256"
        },
        {
          "internalType": "bytes32",
          "name": "nonce",
          "type": "bytes32"
        },
        {
          "internalType": "uint8",
          "name": "v",
          "type": "uint8"
        },
        {
          "internalType": "bytes32",
          "name": "r",
          "type": "bytes32"
        },
        {
          "internalType": "bytes32",
          "name": "s",
          "type": "bytes32"
        }
      ],
      "name": "transferWithAuthorization",
      "outputs": [],
      "stateMutability": "nonpayable",
      "type": "function"
    },
    {
      "inputs": [
        {
          "internalType": "address",
          "name": "account",
          "type": "address"
        }
      ],
      "name": "unblock",
      "outputs": [],
      "stateMutability": "nonpayable",
      "type": "function"
    },
    {
      "inputs": [
        {
          "internalType": "address",
          "name": "account",
          "type": "address"
        }
      ],
      "name": "unfreeze",
      "outputs": [],
      "stateMutability": "nonpayable",
      "type": "function"
    },
    {
      "inputs": [],
      "name": "unpause",
      "outputs": [],
      "stateMutability": "nonpayable",
      "type": "function"
    },
    {
      "inputs": [
        {
          "internalType": "address",
          "name": "newImplementation",
          "type": "address"
        },
        {
          "internalType": "bytes",
          "name": "data",
          "type": "bytes"
        }
      ],
      "name": "upgradeToAndCall",
      "outputs": [],
      "stateMutability": "payable",
      "type": "function"
    },
    {
      "inputs": [],
      "name": "version",
      "outputs": [
        {
          "internalType": "string",
          "name": "",
          "type": "string"
        }
      ],
      "stateMutability": "pure",
      "type": "function"
    },
    {
      "stateMutability": "payable",
      "type": "receive"
    }
  ],
  "bytecode": "0x60a060405230608052348015610013575f5ffd5b5061001c610021565b6100d3565b7ff0c57e16840df040f15088dc2f81fe391c3923bec73e23a9662efc9c229c6a00805468010000000000000000900460ff16156100715760405163f92ee8a960e01b815260040160405180910390fd5b80546001600160401b03908116146100d05780546001600160401b0319166001600160401b0390811782556040519081527fc7f505b2f371ae2175ee4913f4499e1f2633a7b5936321eed1cdaeb6115181d29060200160405180910390a15b50565b608051614a616100f95f395f8181612e4c01528181612e750152612fd80152614a615ff3fe608060405260043610610450575f3560e01c806367b220a511610236578063b1b387d811610134578063ddca3f43116100b3578063e94a010211610078578063e94a010214610dfa578063ef55bec614610e19578063f1d22be014610e38578063f72c0d8b14610e57578063fbac395114610e8a575f5ffd5b8063ddca3f4314610d55578063e3ee160e14610d69578063e45c084d14610d88578063e583983614610da8578063e63ab1e914610dc7575f5ffd5b8063d505accf116100f9578063d505accf14610ca6578063d539139314610cc5578063d547741f14610cf8578063d8fbe99414610d17578063dd62ed3e14610d36575f5ffd5b8063b1b387d814610bcf578063b252720b14610bee578063c1d34b8914610c3c578063c415b95c14610c5b578063cae9ca5114610c87575f5ffd5b806395d89b41116101c0578063a9059cbb11610185578063a9059cbb14610b22578063acf1c94814610b41578063ad2bb1b314610b61578063ad3cb1cc14610b80578063b02f9be614610bb0575f5ffd5b806395d89b4114610a9e5780639dc29fac14610ab25780639e36eda614610ad1578063a217fddf14610af0578063a42dce8014610b03575f5ffd5b80637ecebe00116102065780637ecebe0014610a065780638456cb5914610a2557806384b0196e14610a395780638d1fdf2f14610a6057806391d1485414610a7f575f5ffd5b806367b220a51461096b57806369fe0e2d1461098a57806370a08231146109a95780637aaaec89146109c8575f5ffd5b8063313ce5671161034e57806345c8b1a6116102cd57806350c1d19d1161029257806350c1d19d146108b357806352d1902d146108da57806354fd4d50146108ee5780635a049a70146109295780635c975abb14610948575f5ffd5b806345c8b1a61461082557806345e9469e146108445780634befe2ca146108585780634cba593a146108805780634f1ef286146108a0575f5ffd5b80633da01325116103135780633da01325146107955780633e0c0629146107b45780633f4ba83a146107d35780634000aea0146107e757806340c10f1914610806575f5ffd5b8063313ce567146107095780633177029f14610724578063343959b4146107435780633644e5151461076257806336568abe14610776575f5ffd5b806318160ddd116103da57806324d7806c1161039f57806324d7806c1461065a57806325d998bb14610679578063282c51f3146106985780632cdf2c35146106cb5780632f2ff15d146106ea575f5ffd5b806318160ddd146105be5780631bf6e00d146105de57806323b872dd146105fd578063248a9ca31461061c57806324bce60c1461063b575f5ffd5b8063095ea7b311610420578063095ea7b3146104ff5780631171bda91461051e5780631296ee621461053d57806313b5627e1461055c578063150b7a021461057b575f5ffd5b806301ffc9a71461045b57806306a85f0f1461048f57806306fdde03146104bd5780630757956c146104de575f5ffd5b3661045757005b5f5ffd5b348015610466575f5ffd5b5061047a610475366004613fd3565b610ea9565b60405190151581526020015b60405180910390f35b34801561049a575f5ffd5b506104af5f51602061494c5f395f51905f5281565b604051908152602001610486565b3480156104c8575f5ffd5b506104d1610eb9565b604051610486919061401c565b3480156104e9575f5ffd5b506104fd6104f8366004614042565b610f5e565b005b34801561050a575f5ffd5b5061047a610519366004614042565b610fe6565b348015610529575f5ffd5b506104fd61053836600461406c565b610ffd565b348015610548575f5ffd5b5061047a610557366004614042565b611126565b348015610567575f5ffd5b506104fd6105763660046140aa565b611147565b348015610586575f5ffd5b506105a561059536600461416a565b630a85bd0160e11b949350505050565b6040516001600160e01b03199091168152602001610486565b3480156105c9575f5ffd5b505f51602061496c5f395f51905f52546104af565b3480156105e9575f5ffd5b506104af6105f83660046140aa565b61118e565b348015610608575f5ffd5b5061047a61061736600461406c565b6111b7565b348015610627575f5ffd5b506104af6106363660046141d2565b6111da565b348015610646575f5ffd5b506104fd610655366004614042565b6111fa565b348015610665575f5ffd5b5061047a6106743660046140aa565b611220565b348015610684575f5ffd5b506104af6106933660046140aa565b61122b565b3480156106a3575f5ffd5b506104af7f3c11d16cbaffd01df69ce1c404f6340ee057498f5f00246190ea54220576a84881565b3480156106d6575f5ffd5b506104fd6106e536600461406c565b611266565b3480156106f5575f5ffd5b506104fd6107043660046141e9565b611303565b348015610714575f5ffd5b5060405160128152602001610486565b34801561072f575f5ffd5b5061047a61073e366004614042565b611325565b34801561074e575f5ffd5b506104fd61075d3660046140aa565b61133f565b34801561076d575f5ffd5b506104af6113ae565b348015610781575f5ffd5b506104fd6107903660046141e9565b6113bc565b3480156107a0575f5ffd5b506104fd6107af3660046140aa565b6113ef565b3480156107bf575f5ffd5b506104fd6107ce366004614042565b611461565b3480156107de575f5ffd5b506104fd61150f565b3480156107f2575f5ffd5b5061047a610801366004614217565b61161e565b348015610811575f5ffd5b506104fd610820366004614042565b611636565b348015610830575f5ffd5b506104fd61083f3660046140aa565b61176f565b34801561084f575f5ffd5b506104fd6117d9565b348015610863575f5ffd5b5061086d6103e781565b60405161ffff9091168152602001610486565b34801561088b575f5ffd5b506104af5f51602061498c5f395f51905f5281565b6104fd6108ae36600461426c565b611851565b3480156108be575f5ffd5b506108c761186c565b60405161048697969594939291906142b9565b3480156108e5575f5ffd5b506104af6118ec565b3480156108f9575f5ffd5b506040805180820190915260138152720c4b8d8b8c8b58db19585b9d5c0b599a5b985b606a1b60208201526104d1565b348015610934575f5ffd5b506104fd61094336600461431a565b611907565b348015610953575f5ffd5b505f516020614a0c5f395f51905f525460ff1661047a565b348015610976575f5ffd5b506104fd6109853660046140aa565b611a5f565b348015610995575f5ffd5b506104fd6109a43660046141d2565b611b53565b3480156109b4575f5ffd5b506104af6109c33660046140aa565b611bae565b3480156109d3575f5ffd5b506109e76109e23660046140aa565b611bb8565b6040805193151584529115156020840152151590820152606001610486565b348015610a11575f5ffd5b506104af610a203660046140aa565b611c26565b348015610a30575f5ffd5b506104fd611c30565b348015610a44575f5ffd5b50610a4d611d11565b6040516104869796959493929190614366565b348015610a6b575f5ffd5b506104fd610a7a3660046140aa565b611d53565b348015610a8a575f5ffd5b5061047a610a993660046141e9565b611e6b565b348015610aa9575f5ffd5b506104d1611ea1565b348015610abd575f5ffd5b506104fd610acc366004614042565b611edf565b348015610adc575f5ffd5b5061047a610aeb3660046140aa565b612049565b348015610afb575f5ffd5b506104af5f81565b348015610b0e575f5ffd5b506104fd610b1d3660046140aa565b612077565b348015610b2d575f5ffd5b5061047a610b3c366004614042565b6120e4565b348015610b4c575f5ffd5b506104af5f51602061490c5f395f51905f5281565b348015610b6c575f5ffd5b506104fd610b7b3660046140aa565b6120f1565b348015610b8b575f5ffd5b506104d1604051806040016040528060058152602001640352e302e360dc1b81525081565b348015610bbb575f5ffd5b506104fd610bca3660046143fc565b6121e3565b348015610bda575f5ffd5b506104fd610be93660046140aa565b6123ba565b348015610bf9575f5ffd5b50610c02612404565b6040805196151587526020870195909552938501929092521515606084015260808301526001600160a01b031660a082015260c001610486565b348015610c47575f5ffd5b5061047a610c5636600461416a565b6125a2565b348015610c66575f5ffd5b50610c6f6125c5565b6040516001600160a01b039091168152602001610486565b348015610c92575f5ffd5b5061047a610ca1366004614217565b6125e2565b348015610cb1575f5ffd5b506104fd610cc03660046144ab565b6125fa565b348015610cd0575f5ffd5b506104af7f9f2df0fed2c77648de5860a4cc508cd0818c85b8b8a1ab4ceeef8d981c8956a681565b348015610d03575f5ffd5b506104fd610d123660046141e9565b61274f565b348015610d22575f5ffd5b5061047a610d3136600461406c565b61276b565b348015610d41575f5ffd5b506104af610d50366004614515565b612786565b348015610d60575f5ffd5b506104af6127cf565b348015610d74575f5ffd5b506104fd610d83366004614541565b6127e0565b348015610d93575f5ffd5b506104af5f5160206149ac5f395f51905f5281565b348015610db3575f5ffd5b5061047a610dc23660046140aa565b61285b565b348015610dd2575f5ffd5b506104af7f65d7a28e3265b37a6474929f336521b332c1681b933f6cb9f3376673440d862a81565b348015610e05575f5ffd5b5061047a610e14366004614042565b61286d565b348015610e24575f5ffd5b506104fd610e33366004614541565b6128a3565b348015610e43575f5ffd5b506104fd610e523660046140aa565b6128cc565b348015610e62575f5ffd5b506104af7f189ab7a9244df0848122154315af71fe140f3db0fe014031783b0946b8c9d2e381565b348015610e95575f5ffd5b5061047a610ea43660046140aa565b6128ec565b5f610eb382612918565b92915050565b60605f5f51602061492c5f395f51905f525b9050806003018054610edc906145c0565b80601f0160208091040260200160405190810160405280929190818152602001828054610f08906145c0565b8015610f535780601f10610f2a57610100808354040283529160200191610f53565b820191905f5260205f20905b815481529060010190602001808311610f3657829003601f168201915b505050505091505090565b5f51602061494c5f395f51905f52610f758161293c565b5f610f7e612949565b6001600160a01b0385165f9081526020829052604090205490915083811015610fba5760405163c5083c6960e01b815260040160405180910390fd5b610fc4848261460c565b6001600160a01b039095165f9081526020929092525060409020929092555050565b5f33610ff38185856129a6565b5060019392505050565b5f51602061490c5f395f51905f526110148161293c565b6001600160a01b03831661103b57604051634e46966960e11b815260040160405180910390fd5b6040516001600160a01b038481166024830152604482018490525f91829187169060640160408051601f198184030181529181526020820180516001600160e01b031663a9059cbb60e01b179052516110949190614636565b5f604051808303815f865af19150503d805f81146110cd576040519150601f19603f3d011682016040523d82523d5f602084013e6110d2565b606091505b509150915081158061110057505f81511180156111005750808060200190518101906110fe9190614641565b155b1561111e576040516312171d8360e31b815260040160405180910390fd5b505050505050565b5f611140838360405180602001604052805f81525061161e565b9392505050565b5f51602061498c5f395f51905f5261115e8161293c565b5f6111676129b3565b6001600160a01b039093165f9081526002909301602052505060409020805460ff19169055565b5f5f611198612949565b6001600160a01b039093165f9081526020939093525050604090205490565b5f336111c48582856129e0565b6111cf858585612a3b565b506001949350505050565b5f9081525f5160206149ec5f395f51905f52602052604090206001015490565b5f51602061494c5f395f51905f526112118161293c565b61121b8383612a98565b505050565b5f610eb38183611e6b565b5f5f61123683611bae565b90505f6112428461118e565b905081811061125457505f9392505050565b61125e818361460c565b949350505050565b5f51602061490c5f395f51905f5261127d8161293c565b6001600160a01b0383166112a457604051634e46966960e11b815260040160405180910390fd5b6040513060248201526001600160a01b038481166044830152606482018490525f91829187169060840160408051601f198184030181529181526020820180516001600160e01b03166323b872dd60e01b179052516110949190614636565b61130c826111da565b6113158161293c565b61131f8383612ad7565b50505050565b5f611140838360405180602001604052805f8152506125e2565b5f5160206149ac5f395f51905f526113568161293c565b5f61135f612b7f565b6001600160a01b0384165f81815260208390526040808220805460ff191690555192935090917f5c272fb29e21b46870af1850afe89126704c55a7781cc100da3f733e15446c7d9190a2505050565b5f6113b7612bac565b905090565b6001600160a01b03811633146113e55760405163334bd91960e11b815260040160405180910390fd5b61121b8282612bb5565b5f5160206149ac5f395f51905f526114068161293c565b5f61140f612b7f565b6001600160a01b0384165f81815260208390526040808220805460ff191660011790555192935090917f75e91ce73c1d3352d8dd3610443539cd33dfe13b1de8f8caae54ec26dd0dc9cb9190a2505050565b5f51602061490c5f395f51905f526114788161293c565b6001600160a01b03831661149f57604051634e46966960e11b815260040160405180910390fd5b5f836001600160a01b0316836040515f6040518083038185875af1925050503d805f81146114e8576040519150601f19603f3d011682016040523d82523d5f602084013e6114ed565b606091505b505090508061131f576040516312171d8360e31b815260040160405180910390fd5b7f65d7a28e3265b37a6474929f336521b332c1681b933f6cb9f3376673440d862a6115398161293c565b5f61158760405180604001604052806007815260200166554e504155534560c81b815250335f604051602001611573911515815260200190565b604051602081830303815290604052612c2e565b9050611591612c8a565b604080515f8152426020820152815133927f92f3183da082581f57c760cdbca5b9647f904b2f6053a74fd2efe646104f9f47928290030190a261161a8160405180604001604052806007815260200166554e504155534560c81b8152503360015f604051602001611606911515815260200190565b604051602081830303815290604052612ce9565b5050565b5f61162a338585612d38565b610ff333858585612d43565b7f9f2df0fed2c77648de5860a4cc508cd0818c85b8b8a1ab4ceeef8d981c8956a66116608161293c565b5f6116a9604051806040016040528060048152602001631352539560e21b8152503386866040516020016115739291906001600160a01b03929092168252602082015260400190565b90505f6116c15f51602061496c5f395f51905f525490565b90506116cd8585612e0d565b5f6116e35f51602061496c5f395f51905f525490565b9050336001600160a01b0387167f5cf1e85ed9550a8fd02cf6692c8c104b94f98ebceb99feff821e7916ba02fe328785854260408051948552602085019390935291830152606082015260800160405180910390a361111e83604051806040016040528060048152602001631352539560e21b8152503360018560405160200161160691815260200190565b5f51602061494c5f395f51905f526117868161293c565b5f61178f612949565b6001600160a01b0384165f818152602083905260408082208290555192935090917f4feb53e305297ab8fb8f3420c95ea04737addc254a7270d8fc4605d2b9c61dba9190a2505050565b5f5f5f5f5f5f6117e7612404565b955095509550955095509550336001600160a01b03167f59c5d97b22c6894bd791cde43b400e9904967d691cab140660049b6a0ecd7ad96118254290565b604080519182526020820189905281018790525f606082015260800160405180910390a2505050505050565b611859612e41565b61186282612ee7565b61161a8282612f11565b60605f5f5f5f5f5f6118a46040805180820190915260138152720c4b8d8b8c8b58db19585b9d5c0b599a5b985b606a1b602082015290565b5f51602061496c5f395f51905f52545f516020614a0c5f395f51905f525460ff166118cd6127cf565b6118d56125c5565b939b929a5090985096509094504393504292509050565b5f6118f5612fcd565b505f5160206149cc5f395f51905f5290565b604080517f158b0a9edf7a828aad02f63cd515c68ef2f50ba807396f6d12842833a159742960208201526001600160a01b03871691810191909152606081018590525f906080016040516020818303038152906040528051906020012090505f61197082613016565b90505f61197f82878787613042565b9050876001600160a01b0316816001600160a01b0316146119b357604051638baa579f60e01b815260040160405180910390fd5b5f6119bc61306e565b6001600160a01b038a165f908152602082815260408083208c845290915290205490915060ff1615611a0157604051634a8478f960e11b815260040160405180910390fd5b6001600160a01b0389165f818152602083815260408083208c8452909152808220805460ff19166001179055518a92917f98de503528ee59b575ef0c0a2576a82497bfc029a5685b209e9ec333479b10a591a3505050505050505050565b5f5160206149ac5f395f51905f52611a768161293c565b5f611ac460405180604001604052806007815260200166554e424c4f434b60c81b81525033855f6040516020016115739291906001600160a01b039290921682521515602082015260400190565b9050611acf8361133f565b336001600160a01b0384167f8106addb9dfab39985b6fea1846b820682215ff8804a8432f0ae61c1cbe424705f4260408051921515835260208301919091520160405180910390a361121b8160405180604001604052806007815260200166554e424c4f434b60c81b8152503360015f604051602001611606911515815260200190565b5f51602061498c5f395f51905f52611b6a8161293c565b6103e7821115611b9d5760405163037664ab60e21b8152600481018390526103e760248201526044015b60405180910390fd5b5f611ba66129b3565b929092555050565b5f610eb38261309b565b5f8080611bc58185611e6b565b611bef7f9f2df0fed2c77648de5860a4cc508cd0818c85b8b8a1ab4ceeef8d981c8956a686611e6b565b611c197f3c11d16cbaffd01df69ce1c404f6340ee057498f5f00246190ea54220576a84887611e6b565b9250925092509193909250565b5f610eb3826130b0565b7f65d7a28e3265b37a6474929f336521b332c1681b933f6cb9f3376673440d862a611c5a8161293c565b5f611c9360405180604001604052806005815260200164504155534560d81b815250336001604051602001611573911515815260200190565b9050611c9d6130d8565b6040805160018152426020820152815133927f92f3183da082581f57c760cdbca5b9647f904b2f6053a74fd2efe646104f9f47928290030190a261161a8160405180604001604052806005815260200164504155534560d81b81525033600180604051602001611606911515815260200190565b5f6060805f5f5f6060611d22613120565b611d2a613171565b604080515f80825260208201909252600f60f81b9b939a50919850469750309650945092509050565b5f51602061494c5f395f51905f52611d6a8161293c565b5f611dae60405180604001604052806006815260200165465245455a4560d01b815250338560405160200161157391906001600160a01b0391909116815260200190565b90505f611dba8461118e565b9050611dc5846128cc565b5f611dcf8561118e565b9050336001600160a01b0386167fa177dd8bc3eef96ce1247b1921f551f022625d836f22cd6c4fdb12dcff1f56ca611e07858561460c565b6040805191825260208201879052818101869052426060830152519081900360800190a3611e648360405180604001604052806006815260200165465245455a4560d01b8152503360018560405160200161160691815260200190565b5050505050565b5f9182525f5160206149ec5f395f51905f52602090815260408084206001600160a01b0393909316845291905290205460ff1690565b7f52c63247e1f47db19d5ce0460030c497f067ca4cebf71ba98eeadabe20bace0480546060915f51602061492c5f395f51905f5291610edc906145c0565b7f3c11d16cbaffd01df69ce1c404f6340ee057498f5f00246190ea54220576a848611f098161293c565b5f611f5260405180604001604052806004815260200163212aa92760e11b8152503386866040516020016115739291906001600160a01b03929092168252602082015260400190565b90505f611f6a5f51602061496c5f395f51905f525490565b90505f611f7686611bae565b9050611f82868661319a565b5f611f985f51602061496c5f395f51905f525490565b90505f611fa488611bae565b9050336001600160a01b0389167f09c099768be9b37341aff27193e59e0999f434da892328a70fb28c199d871ec0898786888742604080519687526020870195909552938501929092526060840152608083015260a082015260c00160405180910390a361203f8560405180604001604052806004815260200163212aa92760e11b8152503360018660405160200161160691815260200190565b5050505050505050565b5f5f6120536129b3565b6001600160a01b039093165f90815260029093016020525050604090205460ff1690565b5f51602061498c5f395f51905f5261208e8161293c565b6001600160a01b0382166120b55760405163bb0bac9960e01b815260040160405180910390fd5b5f6120be6129b3565b60010180546001600160a01b0319166001600160a01b0394909416939093179092555050565b5f33610ff3818585612a3b565b5f5160206149ac5f395f51905f526121088161293c565b5f61215560405180604001604052806005815260200164424c4f434b60d81b815250338560016040516020016115739291906001600160a01b039290921682521515602082015260400190565b9050612160836113ef565b336001600160a01b0384167f8106addb9dfab39985b6fea1846b820682215ff8804a8432f0ae61c1cbe4247060014260408051921515835260208301919091520160405180910390a361121b8160405180604001604052806005815260200164424c4f434b60d81b81525033600180604051602001611606911515815260200190565b5f6121ec6131ce565b805490915060ff600160401b820416159067ffffffffffffffff165f811580156122135750825b90505f8267ffffffffffffffff16600114801561222f5750303b155b90508115801561223d575080155b1561225b5760405163f92ee8a960e01b815260040160405180910390fd5b845467ffffffffffffffff19166001178555831561228557845460ff60401b1916600160401b1785555b61228f8c8c6131f6565b6122988c613208565b6122a0613233565b6122a8613233565b6122b061323b565b6122b861323b565b6122c2888861324b565b6122ca613233565b6122d261323b565b6122da61323b565b6122e45f87612ad7565b5061230f7f189ab7a9244df0848122154315af71fe140f3db0fe014031783b0946b8c9d2e387612ad7565b506123275f51602061498c5f395f51905f5287612ad7565b5061233f5f51602061490c5f395f51905f5287612ad7565b505f8a11801561235757506001600160a01b03891615155b1561236657612366898b612e0d565b83156123ac57845460ff60401b19168555604051600181527fc7f505b2f371ae2175ee4913f4499e1f2633a7b5936321eed1cdaeb6115181d29060200160405180910390a15b505050505050505050505050565b5f51602061498c5f395f51905f526123d18161293c565b5f6123da6129b3565b6001600160a01b039093165f9081526002909301602052505060409020805460ff19166001179055565b5f5f5f5f5f5f306001600160a01b03166318160ddd6040518163ffffffff1660e01b8152600401602060405180830381865afa158015612446573d5f5f3e3d5ffd5b505050506040513d601f19601f8201168201806040525081019061246a9190614660565b9450306001600160a01b0316635c975abb6040518163ffffffff1660e01b8152600401602060405180830381865afa1580156124a8573d5f5f3e3d5ffd5b505050506040513d601f19601f820116820180604052508101906124cc9190614641565b9250306001600160a01b031663ddca3f436040518163ffffffff1660e01b8152600401602060405180830381865afa15801561250a573d5f5f3e3d5ffd5b505050506040513d601f19601f8201168201806040525081019061252e9190614660565b9150306001600160a01b031663c415b95c6040518163ffffffff1660e01b8152600401602060405180830381865afa15801561256c573d5f5f3e3d5ffd5b505050506040513d601f19601f820116820180604052508101906125909190614677565b90506001935060019550909192939495565b5f6125ae8533856129e0565b6125b9858585612d38565b6111cf85858585612d43565b5f5f6125cf6129b3565b600101546001600160a01b031692915050565b5f6125ee3385856132e2565b610ff3338585856132ed565b8342111561261e5760405163313c898160e11b815260048101859052602401611b94565b5f7f6e71edae12b1b97f4d1f60370fef10105fa2faae0126114a169c64845d6126c98888886126888c6001600160a01b03165f9081527f5ab42ced628888259c08ac98db1eb0cf702fc1501344311d8b100cd1bfe4bb006020526040902080546001810190915590565b6040805160208101969096526001600160a01b0394851690860152929091166060840152608083015260a082015260c0810186905260e0016040516020818303038152906040528051906020012090505f6126e282613016565b90505f6126f182878787613042565b9050896001600160a01b0316816001600160a01b031614612738576040516325c0072360e11b81526001600160a01b0380831660048301528b166024820152604401611b94565b6127438a8a8a6129a6565b50505050505050505050565b612758826111da565b6127618161293c565b61131f8383612bb5565b5f61125e84848460405180602001604052805f8152506125a2565b6001600160a01b039182165f9081527f52c63247e1f47db19d5ce0460030c497f067ca4cebf71ba98eeadabe20bace016020908152604080832093909416825291909152205490565b5f5f6127d96129b3565b5492915050565b6127f18989898989898989896133b5565b5f6127fa61306e565b6001600160a01b038b165f818152602083815260408083208a8452909152808220805460ff191660011790555192935087927f98de503528ee59b575ef0c0a2576a82497bfc029a5685b209e9ec333479b10a59190a36127438a8a8a612d38565b5f5f6128668361118e565b1192915050565b5f5f61287761306e565b6001600160a01b0385165f90815260209182526040808220868352909252205460ff1691505092915050565b6001600160a01b03881633146127e057604051638baa579f60e01b815260040160405180910390fd5b5f51602061494c5f395f51905f526128e38161293c565b61161a82613519565b5f5f6128f6612b7f565b6001600160a01b039093165f9081526020939093525050604090205460ff1690565b5f6001600160e01b0319821663b0202a1160e01b1480610eb35750610eb382613584565b61294681336135b8565b50565b5f8061297660017f40f385e4879a1fa5e3cc698493efcfb2013bd3fda9ef97a21d5c98ecd5da12f161460c565b60405160200161298891815260200190565b60408051601f19818403018152919052805160209091012092915050565b61121b83838360016135f1565b5f8061297660017f32dc6a76abef00e5671bbe7b33825d6b9ed59ce03aa73e058421471d39036e7761460c565b5f6129eb8484612786565b905081811015612a2757604051637dc7a0d960e11b81526001600160a01b03841660048201526024810182905260448101839052606401611b94565b61131f8484612a36858561460c565b6129a6565b6001600160a01b038316612a6457604051634b637e8f60e11b81525f6004820152602401611b94565b6001600160a01b038216612a8d5760405163ec442f0560e01b81525f6004820152602401611b94565b61121b8383836136c5565b5f51602061494c5f395f51905f52612aaf8161293c565b5f612ab8612949565b6001600160a01b039094165f9081526020949094525050604090912055565b5f5f5160206149ec5f395f51905f52612af08484611e6b565b612b6f575f848152602082815260408083206001600160a01b03871684529091529020805460ff19166001179055612b253390565b6001600160a01b0316836001600160a01b0316857f2f8788117e7eff1d82e926ec794901d17c78024a50270940304540a733656f0d60405160405180910390a46001915050610eb3565b5f915050610eb3565b5092915050565b5f8061297660017fcf0619c5b42052243c46bb4e123bbca492a8a3624401dec336022e7b053779cb61460c565b5f6113b7613884565b5f5f5160206149ec5f395f51905f52612bce8484611e6b565b15612b6f575f848152602082815260408083206001600160a01b0387168085529252808320805460ff1916905551339287917ff6391f5c32d9c69d2a47ea670b442974b53935d1edc7fd64eb21e047a839171b9190a46001915050610eb3565b5f5f612c3a85856138f7565b90506001600160a01b038416817f6a71e99dd3659c5ddc3a4f53072ecdb7197ddc65e5277f325352b0b8e4e5b4d7874287604051612c7a93929190614692565b60405180910390a3949350505050565b612c9261392d565b5f516020614a0c5f395f51905f52805460ff191681557f5db9ee0a495bf2e6ff9c91a7834c1ba4fdd244a5e8aa4e537bd38aeae4b073aa335b6040516001600160a01b03909116815260200160405180910390a150565b6001600160a01b038316857f9657612c8ed3b8841e53aa624b2e23657021e36a86916d4958a88315f7a2924486428686604051612d2994939291906146c6565b60405180910390a35050505050565b61121b83838361395c565b6001600160a01b0383163b1561131f57604051632229f29760e21b81526001600160a01b038416906388a7ca5c90612d85903390889087908790600401614703565b6020604051808303815f875af1925050508015612dbf575060408051601f3d908101601f19168201909252612dbc91810190614735565b60015b612ddc57604051631daea43560e21b815260040160405180910390fd5b6001600160e01b03198116632229f29760e21b14611e6457604051631daea43560e21b815260040160405180910390fd5b6001600160a01b038216612e365760405163ec442f0560e01b81525f6004820152602401611b94565b61161a5f83836136c5565b306001600160a01b037f0000000000000000000000000000000000000000000000000000000000000000161480612ec757507f00000000000000000000000000000000000000000000000000000000000000006001600160a01b0316612ebb5f5160206149cc5f395f51905f52546001600160a01b031690565b6001600160a01b031614155b15612ee55760405163703e46dd60e11b815260040160405180910390fd5b565b7f189ab7a9244df0848122154315af71fe140f3db0fe014031783b0946b8c9d2e361161a8161293c565b816001600160a01b03166352d1902d6040518163ffffffff1660e01b8152600401602060405180830381865afa925050508015612f6b575060408051601f3d908101601f19168201909252612f6891810190614660565b60015b612f9357604051634c9c8ce360e01b81526001600160a01b0383166004820152602401611b94565b5f5160206149cc5f395f51905f528114612fc357604051632a87526960e21b815260048101829052602401611b94565b61121b8383613a95565b306001600160a01b037f00000000000000000000000000000000000000000000000000000000000000001614612ee55760405163703e46dd60e11b815260040160405180910390fd5b5f610eb3613022612bac565b8360405161190160f01b8152600281019290925260228201526042902090565b5f5f5f5f61305288888888613aea565b9250925092506130628282613bb2565b50909695505050505050565b5f8061297660017fd2d7d79862149a046ea0a7357c83ade44e41ff4ff1a47bebf6e499f455576b0761460c565b5f805f51602061492c5f395f51905f52611198565b5f807f5ab42ced628888259c08ac98db1eb0cf702fc1501344311d8b100cd1bfe4bb00611198565b6130e0613c6a565b5f516020614a0c5f395f51905f52805460ff191660011781557f62e78cea01bee320cd4e420270b5ea74000d11b0c9f74754ebdbfc544b05a25833612ccb565b7fa16a46d94261c7517cc8ff89f61c0ce93598e3c849801011dee649a6a557d10280546060917fa16a46d94261c7517cc8ff89f61c0ce93598e3c849801011dee649a6a557d10091610edc906145c0565b60605f7fa16a46d94261c7517cc8ff89f61c0ce93598e3c849801011dee649a6a557d100610ecb565b6001600160a01b0382166131c357604051634b637e8f60e11b81525f6004820152602401611b94565b61161a825f836136c5565b5f807ff0c57e16840df040f15088dc2f81fe391c3923bec73e23a9662efc9c229c6a00610eb3565b6131fe613c9a565b61161a8282613cbf565b613210613c9a565b61294681604051806040016040528060018152602001603160f81b815250613d0f565b612ee5613c9a565b613243613c9a565b612ee5613233565b613253613c9a565b61325b613233565b5f6132646129b3565b90506103e78311156132945760405163037664ab60e21b8152600481018490526103e76024820152604401611b94565b6001600160a01b0382166132bb5760405163bb0bac9960e01b815260040160405180910390fd5b918255600190910180546001600160a01b0319166001600160a01b03909216919091179055565b61121b8383836129a6565b6001600160a01b0383163b1561131f576040516307b04a2d60e41b81526001600160a01b03841690637b04a2d09061332d90879086908690600401614750565b6020604051808303815f875af1925050508015613367575060408051601f3d908101601f1916820190925261336491810190614735565b60015b61338457604051632646684160e11b815260040160405180910390fd5b6001600160e01b031981166307b04a2d60e41b14611e6457604051632646684160e11b815260040160405180910390fd5b604080517f7c7c6cdb67a18743f49ec6fa9b35f50d52ed05cbed4cc592e13b44501c1a22676020808301919091526001600160a01b038c8116838501528b166060830152608082018a905260a0820189905260c0820188905260e08083018890528351808403909101815261010090920190925280519101205f61343882613016565b90505f61344782878787613042565b90508b6001600160a01b0316816001600160a01b03161461347b57604051638baa579f60e01b815260040160405180910390fd5b5f61348461306e565b6001600160a01b038e165f908152602082815260408083208c845290915290205490915060ff16156134c957604051634a8478f960e11b815260040160405180910390fd5b894210156134ea57604051636fc721b960e11b815260040160405180910390fd5b88421061350a57604051630f05f5bf60e01b815260040160405180910390fd5b50505050505050505050505050565b5f51602061494c5f395f51905f526135308161293c565b5f613539612949565b6001600160a01b0384165f818152602083905260408082205f1990555192935090917f8a5c4736a33c7b7f29a2c34ea9ff9608afc5718d56f6fd6dcbd2d3711a1a49139190a2505050565b5f6001600160e01b03198216637965db0b60e01b1480610eb357506301ffc9a760e01b6001600160e01b0319831614610eb3565b6135c28282611e6b565b61161a5760405163e2517d3f60e01b81526001600160a01b038216600482015260248101839052604401611b94565b5f51602061492c5f395f51905f526001600160a01b0385166136285760405163e602df0560e01b81525f6004820152602401611b94565b6001600160a01b03841661365157604051634a1406b160e11b81525f6004820152602401611b94565b6001600160a01b038086165f90815260018301602090815260408083209388168352929052208390558115611e6457836001600160a01b0316856001600160a01b03167f8c5be1e5ebec7d5bd14f71427d1e84f3dd0314c0f7b2291e5b200ac8c7c3b92585604051612d2991815260200190565b6001600160a01b038316158015906136e557506001600160a01b03821615155b15613720576136f3836128ec565b806137025750613702826128ec565b1561372057604051636bc671fd60e01b815260040160405180910390fd5b6001600160a01b0383161580159061374057506001600160a01b03821615155b1561377b5761374e8361285b565b8061375d575061375d8261285b565b1561377b576040516302a957f560e51b815260040160405180910390fd5b6001600160a01b0383161580159061379b57506001600160a01b03821615155b15613879575f6137ac848484613d72565b9050801561386e575f6137bd6125c5565b90505f6137ca838561460c565b9050816001600160a01b0316856001600160a01b0316876001600160a01b03167f803d12d052d3a42da53502ca6a18174fadf998cc86e6a823947c874b0ecc6ad18787866138154290565b60408051948552602085019390935291830152606082015260800160405180910390a4613843868683613e2d565b856001600160a01b0316826001600160a01b03161461386757613867868385613e2d565b505061131f565b61131f848484613e2d565b61121b838383613e2d565b5f7f8b73c3c69bb8fe3d512ecc4cf759cc79239f7b179b0ffacaa9a75d522b39400f6138ae613e35565b6138b6613e4a565b60408051602081019490945283019190915260608201524660808201523060a082015260c00160405160208183030381529060405280519060200120905090565b5f8282424360405160200161390f9493929190614776565b60405160208183030381529060405280519060200120905092915050565b5f516020614a0c5f395f51905f525460ff16612ee557604051638dfc202b60e01b815260040160405180910390fd5b5f51602061492c5f395f51905f526001600160a01b0384166139965781816002015f82825461398b91906147af565b90915550613a069050565b6001600160a01b0384165f90815260208290526040902054828110156139e85760405163391434e360e21b81526001600160a01b03861660048201526024810182905260448101849052606401611b94565b6001600160a01b0385165f9081526020839052604090209083900390555b6001600160a01b038316613a24576002810180548390039055613a42565b6001600160a01b0383165f9081526020829052604090208054830190555b826001600160a01b0316846001600160a01b03167fddf252ad1be2c89b69c2b068fc378daa952ba7f163c4a11628f55a4df523b3ef84604051613a8791815260200190565b60405180910390a350505050565b613a9e82613e53565b6040516001600160a01b038316907fbc7cd75a20ee27fd9adebab32041f755214dbc6bffa90cc0225b39da2e5c2d3b905f90a2805115613ae25761121b8282613eb6565b61161a613f4f565b5f80807f7fffffffffffffffffffffffffffffff5d576e7357a4501ddfe92f46681b20a0841115613b2357505f91506003905082613ba8565b604080515f808252602082018084528a905260ff891692820192909252606081018790526080810186905260019060a0016020604051602081039080840390855afa158015613b74573d5f5f3e3d5ffd5b5050604051601f1901519150506001600160a01b038116613b9f57505f925060019150829050613ba8565b92505f91508190505b9450945094915050565b5f826003811115613bc557613bc56147c2565b03613bce575050565b6001826003811115613be257613be26147c2565b03613c005760405163f645eedf60e01b815260040160405180910390fd5b6002826003811115613c1457613c146147c2565b03613c355760405163fce698f760e01b815260048101829052602401611b94565b6003826003811115613c4957613c496147c2565b0361161a576040516335e2f38360e21b815260048101829052602401611b94565b5f516020614a0c5f395f51905f525460ff1615612ee55760405163d93c066560e01b815260040160405180910390fd5b613ca2613f6e565b612ee557604051631afcd79f60e31b815260040160405180910390fd5b613cc7613c9a565b5f51602061492c5f395f51905f527f52c63247e1f47db19d5ce0460030c497f067ca4cebf71ba98eeadabe20bace03613d00848261481a565b506004810161131f838261481a565b613d17613c9a565b7fa16a46d94261c7517cc8ff89f61c0ce93598e3c849801011dee649a6a557d1007fa16a46d94261c7517cc8ff89f61c0ce93598e3c849801011dee649a6a557d102613d63848261481a565b506003810161131f838261481a565b5f5f613d7c6129b3565b80549091505f03613d90575f915050611140565b6001600160a01b0385161580613dad57506001600160a01b038416155b15613dbb575f915050611140565b6001600160a01b0385165f90815260028201602052604090205460ff1680613dfc57506001600160a01b0384165f90815260028201602052604090205460ff165b15613e0a575f915050611140565b805461271090613e1a90856148d5565b613e2491906148ec565b95945050505050565b612d38613c6a565b5f613e3e613120565b80519060200120905090565b5f613e3e613171565b806001600160a01b03163b5f03613e8857604051634c9c8ce360e01b81526001600160a01b0382166004820152602401611b94565b5f5160206149cc5f395f51905f5280546001600160a01b0319166001600160a01b0392909216919091179055565b60605f613ec38484613f87565b9050808015613ee457505f3d1180613ee457505f846001600160a01b03163b115b15613ef957613ef1613f9a565b915050610eb3565b8015613f2357604051639996b31560e01b81526001600160a01b0385166004820152602401611b94565b3d15613f3657613f31613fb3565b612b78565b60405163d6bda27560e01b815260040160405180910390fd5b3415612ee55760405163b398979f60e01b815260040160405180910390fd5b5f613f776131ce565b54600160401b900460ff16919050565b5f5f5f835160208501865af49392505050565b6040513d81523d5f602083013e3d602001810160405290565b6040513d5f823e3d81fd5b6001600160e01b031981168114612946575f5ffd5b5f60208284031215613fe3575f5ffd5b813561114081613fbe565b5f81518084528060208401602086015e5f602082860101526020601f19601f83011685010191505092915050565b602081525f6111406020830184613fee565b6001600160a01b0381168114612946575f5ffd5b5f5f60408385031215614053575f5ffd5b823561405e8161402e565b946020939093013593505050565b5f5f5f6060848603121561407e575f5ffd5b83356140898161402e565b925060208401356140998161402e565b929592945050506040919091013590565b5f602082840312156140ba575f5ffd5b81356111408161402e565b634e487b7160e01b5f52604160045260245ffd5b5f82601f8301126140e8575f5ffd5b8135602083015f5f67ffffffffffffffff841115614108576141086140c5565b50604051601f19601f85018116603f0116810181811067ffffffffffffffff82111715614137576141376140c5565b60405283815290508082840187101561414e575f5ffd5b838360208301375f602085830101528094505050505092915050565b5f5f5f5f6080858703121561417d575f5ffd5b84356141888161402e565b935060208501356141988161402e565b925060408501359150606085013567ffffffffffffffff8111156141ba575f5ffd5b6141c6878288016140d9565b91505092959194509250565b5f602082840312156141e2575f5ffd5b5035919050565b5f5f604083850312156141fa575f5ffd5b82359150602083013561420c8161402e565b809150509250929050565b5f5f5f60608486031215614229575f5ffd5b83356142348161402e565b925060208401359150604084013567ffffffffffffffff811115614256575f5ffd5b614262868287016140d9565b9150509250925092565b5f5f6040838503121561427d575f5ffd5b82356142888161402e565b9150602083013567ffffffffffffffff8111156142a3575f5ffd5b6142af858286016140d9565b9150509250929050565b60e081525f6142cb60e083018a613fee565b602083019890985250941515604086015260608501939093526001600160a01b0391909116608084015260a083015260c090910152919050565b803560ff81168114614315575f5ffd5b919050565b5f5f5f5f5f60a0868803121561432e575f5ffd5b85356143398161402e565b94506020860135935061434e60408701614305565b94979396509394606081013594506080013592915050565b60ff60f81b8816815260e060208201525f61438460e0830189613fee565b82810360408401526143968189613fee565b606084018890526001600160a01b038716608085015260a0840186905283810360c0850152845180825260208087019350909101905f5b818110156143eb5783518352602093840193909201916001016143cd565b50909b9a5050505050505050505050565b5f5f5f5f5f5f5f60e0888a031215614412575f5ffd5b873567ffffffffffffffff811115614428575f5ffd5b6144348a828b016140d9565b975050602088013567ffffffffffffffff811115614450575f5ffd5b61445c8a828b016140d9565b9650506040880135945060608801356144748161402e565b93506080880135925060a088013561448b8161402e565b915060c088013561449b8161402e565b8091505092959891949750929550565b5f5f5f5f5f5f5f60e0888a0312156144c1575f5ffd5b87356144cc8161402e565b965060208801356144dc8161402e565b955060408801359450606088013593506144f860808901614305565b9699959850939692959460a0840135945060c09093013592915050565b5f5f60408385031215614526575f5ffd5b82356145318161402e565b9150602083013561420c8161402e565b5f5f5f5f5f5f5f5f5f6101208a8c03121561455a575f5ffd5b89356145658161402e565b985060208a01356145758161402e565b975060408a0135965060608a0135955060808a0135945060a08a0135935061459f60c08b01614305565b989b979a50959894979396929550929360e081013593506101000135919050565b600181811c908216806145d457607f821691505b6020821081036145f257634e487b7160e01b5f52602260045260245ffd5b50919050565b634e487b7160e01b5f52601160045260245ffd5b81810381811115610eb357610eb36145f8565b5f81518060208401855e5f93019283525090919050565b5f611140828461461f565b5f60208284031215614651575f5ffd5b81518015158114611140575f5ffd5b5f60208284031215614670575f5ffd5b5051919050565b5f60208284031215614687575f5ffd5b81516111408161402e565b606081525f6146a46060830186613fee565b84602084015282810360408401526146bc8185613fee565b9695505050505050565b608081525f6146d86080830187613fee565b856020840152841515604084015282810360608401526146f88185613fee565b979650505050505050565b6001600160a01b03858116825284166020820152604081018390526080606082018190525f906146bc90830184613fee565b5f60208284031215614745575f5ffd5b815161114081613fbe565b60018060a01b0384168152826020820152606060408201525f613e246060830184613fee565b5f614781828761461f565b60609590951b6bffffffffffffffffffffffff19168552505060148301919091526034820152605401919050565b80820180821115610eb357610eb36145f8565b634e487b7160e01b5f52602160045260245ffd5b601f82111561121b57805f5260205f20601f840160051c810160208510156147fb5750805b601f840160051c820191505b81811015611e64575f8155600101614807565b815167ffffffffffffffff811115614834576148346140c5565b6148488161484284546145c0565b846147d6565b6020601f82116001811461487a575f83156148635750848201515b5f19600385901b1c1916600184901b178455611e64565b5f84815260208120601f198516915b828110156148a95787850151825560209485019460019092019101614889565b50848210156148c657868401515f19600387901b60f8161c191681555b50505050600190811b01905550565b8082028115828204841417610eb357610eb36145f8565b5f8261490657634e487b7160e01b5f52601260045260245ffd5b50049056feb3e25b5404b87e5a838579cb5d7481d61ad96ee284d38ec1e97c07ba64e7f6fc52c63247e1f47db19d5ce0460030c497f067ca4cebf71ba98eeadabe20bace0092de27771f92d6942691d73358b3a4673e4880de8356f8f2cf452be87e02d36352c63247e1f47db19d5ce0460030c497f067ca4cebf71ba98eeadabe20bace02349eec46d2c564a125684d1934a6120a70cc341d3a26d362e358a775e07dec178f2e0057cd5e35397007bcc8f5418f73dd64cc6e4073a0276563f247c3079037360894a13ba1a3210667c828492db98dca3e2076cc3735a920a3ca505d382bbc02dd7bc7dec4dceedda775e58dd541e08a116c6c53815c0bd028192f7b626800cd5ed15c6e187e77e9aee88184c21f4f2182ab5827cb3b7e07fbedcd63f03300a2646970667358221220f786ad68cb610fa8b00d90c2a945c66ec33a4990d3a64a2ef8b1cdff6d1c383d64736f6c634300081c0033",
  "linkReferences": {},
  "deployedLinkReferences": {}
}